OUT 20250518-21:16:42.766506133 8=FIX.4.4|9=82|35=A|49=REUTERSLFX-ORD|56=EdgeORD|34=1|52=20250518-21:16:42.766|98=0|108=30|141=Y|10=183|
 IN 20250518-21:16:42.771721060 8=FIX.4.4|9=82|35=A|49=EdgeORD|56=REUTERSLFX-ORD|34=1|52=20250518-21:16:42.770|98=0|108=30|141=Y|10=178|
 IN 20250518-21:16:42.771922582 8=FIX.4.4|9=104|35=h|49=EdgeORD|56=REUTERSLFX-ORD|34=2|52=20250518-21:16:42.770|336=1747588115027927786:000000000|340=2|10=121|
OUT 20250518-21:17:12.766498762 8=FIX.4.4|9=64|35=0|49=REUTERSLFX-ORD|56=EdgeORD|34=2|52=20250518-21:17:12.766|10=095|
 IN 20250518-21:17:12.779988655 8=FIX.4.4|9=64|35=0|49=EdgeORD|56=REUTERSLFX-ORD|34=3|52=20250518-21:17:12.779|10=100|
OUT 20250518-21:17:42.766583142 8=FIX.4.4|9=64|35=0|49=REUTERSLFX-ORD|56=EdgeORD|34=3|52=20250518-21:17:42.766|10=099|
 IN 20250518-21:17:42.780083693 8=FIX.4.4|9=64|35=0|49=EdgeORD|56=REUTERSLFX-ORD|34=4|52=20250518-21:17:42.779|10=104|
OUT 20250518-21:18:12.766674979 8=FIX.4.4|9=64|35=0|49=REUTERSLFX-ORD|56=EdgeORD|34=4|52=20250518-21:18:12.766|10=098|
 IN 20250518-21:18:12.780172192 8=FIX.4.4|9=64|35=0|49=EdgeORD|56=REUTERSLFX-ORD|34=5|52=20250518-21:18:12.779|10=103|
OUT 20250518-21:18:42.766765248 8=FIX.4.4|9=64|35=0|49=REUTERSLFX-ORD|56=EdgeORD|34=5|52=20250518-21:18:42.766|10=102|
 IN 20250518-21:18:42.780269409 8=FIX.4.4|9=64|35=0|49=EdgeORD|56=REUTERSLFX-ORD|34=6|52=20250518-21:18:42.779|10=107|
OUT 20250518-21:19:12.766870369 8=FIX.4.4|9=64|35=0|49=REUTERSLFX-ORD|56=EdgeORD|34=6|52=20250518-21:19:12.766|10=101|
 IN 20250518-21:19:12.780393406 8=FIX.4.4|9=64|35=0|49=EdgeORD|56=REUTERSLFX-ORD|34=7|52=20250518-21:19:12.779|10=106|
OUT 20250518-21:19:42.766964100 8=FIX.4.4|9=64|35=0|49=REUTERSLFX-ORD|56=EdgeORD|34=7|52=20250518-21:19:42.766|10=105|
 IN 20250518-21:19:42.780480983 8=FIX.4.4|9=64|35=0|49=EdgeORD|56=REUTERSLFX-ORD|34=8|52=20250518-21:19:42.779|10=110|
OUT 20250518-21:20:12.767059226 8=FIX.4.4|9=64|35=0|49=REUTERSLFX-ORD|56=EdgeORD|34=8|52=20250518-21:20:12.767|10=096|
 IN 20250518-21:20:12.780604745 8=FIX.4.4|9=64|35=0|49=EdgeORD|56=REUTERSLFX-ORD|34=9|52=20250518-21:20:12.779|10=100|
OUT 20250518-21:20:42.767172718 8=FIX.4.4|9=64|35=0|49=REUTERSLFX-ORD|56=EdgeORD|34=9|52=20250518-21:20:42.767|10=100|
 IN 20250518-21:20:42.780728780 8=FIX.4.4|9=65|35=0|49=EdgeORD|56=REUTERSLFX-ORD|34=10|52=20250518-21:20:42.780|10=136|
OUT 20250518-21:21:12.767270503 8=FIX.4.4|9=65|35=0|49=REUTERSLFX-ORD|56=EdgeORD|34=10|52=20250518-21:21:12.767|10=139|
 IN 20250518-21:21:12.780824349 8=FIX.4.4|9=65|35=0|49=EdgeORD|56=REUTERSLFX-ORD|34=11|52=20250518-21:21:12.780|10=135|
OUT 20250518-21:21:42.767368026 8=FIX.4.4|9=65|35=0|49=REUTERSLFX-ORD|56=EdgeORD|34=11|52=20250518-21:21:42.767|10=143|
 IN 20250518-21:21:42.780970826 8=FIX.4.4|9=65|35=0|49=EdgeORD|56=REUTERSLFX-ORD|34=12|52=20250518-21:21:42.780|10=139|
OUT 20250518-21:22:12.767460051 8=FIX.4.4|9=65|35=0|49=REUTERSLFX-ORD|56=EdgeORD|34=12|52=20250518-21:22:12.767|10=142|
 IN 20250518-21:22:12.781075798 8=FIX.4.4|9=65|35=0|49=EdgeORD|56=REUTERSLFX-ORD|34=13|52=20250518-21:22:12.780|10=138|
OUT 20250518-21:22:42.767515491 8=FIX.4.4|9=65|35=0|49=REUTERSLFX-ORD|56=EdgeORD|34=13|52=20250518-21:22:42.767|10=146|
 IN 20250518-21:22:42.781165785 8=FIX.4.4|9=65|35=0|49=EdgeORD|56=REUTERSLFX-ORD|34=14|52=20250518-21:22:42.780|10=142|
OUT 20250518-21:23:12.767607141 8=FIX.4.4|9=65|35=0|49=REUTERSLFX-ORD|56=EdgeORD|34=14|52=20250518-21:23:12.767|10=145|
 IN 20250518-21:23:12.781236233 8=FIX.4.4|9=65|35=0|49=EdgeORD|56=REUTERSLFX-ORD|34=15|52=20250518-21:23:12.780|10=141|
OUT 20250518-21:23:42.767710317 8=FIX.4.4|9=65|35=0|49=REUTERSLFX-ORD|56=EdgeORD|34=15|52=20250518-21:23:42.767|10=149|
 IN 20250518-21:23:42.781316014 8=FIX.4.4|9=65|35=0|49=EdgeORD|56=REUTERSLFX-ORD|34=16|52=20250518-21:23:42.780|10=145|
OUT 20250518-21:24:12.767773424 8=FIX.4.4|9=65|35=0|49=REUTERSLFX-ORD|56=EdgeORD|34=16|52=20250518-21:24:12.767|10=148|
 IN 20250518-21:24:12.781396284 8=FIX.4.4|9=65|35=0|49=EdgeORD|56=REUTERSLFX-ORD|34=17|52=20250518-21:24:12.780|10=144|
OUT 20250518-21:24:42.767835123 8=FIX.4.4|9=65|35=0|49=REUTERSLFX-ORD|56=EdgeORD|34=17|52=20250518-21:24:42.767|10=152|
 IN 20250518-21:24:42.781464182 8=FIX.4.4|9=65|35=0|49=EdgeORD|56=REUTERSLFX-ORD|34=18|52=20250518-21:24:42.780|10=148|
OUT 20250518-21:25:12.767948566 8=FIX.4.4|9=65|35=0|49=REUTERSLFX-ORD|56=EdgeORD|34=18|52=20250518-21:25:12.767|10=151|
 IN 20250518-21:25:12.781549332 8=FIX.4.4|9=65|35=0|49=EdgeORD|56=REUTERSLFX-ORD|34=19|52=20250518-21:25:12.780|10=147|
OUT 20250518-21:25:42.768030998 8=FIX.4.4|9=65|35=0|49=REUTERSLFX-ORD|56=EdgeORD|34=19|52=20250518-21:25:42.768|10=156|
 IN 20250518-21:25:42.781678202 8=FIX.4.4|9=65|35=0|49=EdgeORD|56=REUTERSLFX-ORD|34=20|52=20250518-21:25:42.781|10=143|
OUT 20250518-21:26:12.768118190 8=FIX.4.4|9=65|35=0|49=REUTERSLFX-ORD|56=EdgeORD|34=20|52=20250518-21:26:12.768|10=146|
 IN 20250518-21:26:12.781768166 8=FIX.4.4|9=65|35=0|49=EdgeORD|56=REUTERSLFX-ORD|34=21|52=20250518-21:26:12.781|10=142|
OUT 20250518-21:26:42.768172982 8=FIX.4.4|9=65|35=0|49=REUTERSLFX-ORD|56=EdgeORD|34=21|52=20250518-21:26:42.768|10=150|
 IN 20250518-21:26:42.781846037 8=FIX.4.4|9=65|35=0|49=EdgeORD|56=REUTERSLFX-ORD|34=22|52=20250518-21:26:42.781|10=146|
OUT 20250518-21:27:12.768267393 8=FIX.4.4|9=65|35=0|49=REUTERSLFX-ORD|56=EdgeORD|34=22|52=20250518-21:27:12.768|10=149|
 IN 20250518-21:27:12.781975839 8=FIX.4.4|9=65|35=0|49=EdgeORD|56=REUTERSLFX-ORD|34=23|52=20250518-21:27:12.781|10=145|
OUT 20250518-21:27:42.768355131 8=FIX.4.4|9=65|35=0|49=REUTERSLFX-ORD|56=EdgeORD|34=23|52=20250518-21:27:42.768|10=153|
 IN 20250518-21:27:42.782120280 8=FIX.4.4|9=65|35=0|49=EdgeORD|56=REUTERSLFX-ORD|34=24|52=20250518-21:27:42.781|10=149|
OUT 20250518-21:28:12.768476613 8=FIX.4.4|9=65|35=0|49=REUTERSLFX-ORD|56=EdgeORD|34=24|52=20250518-21:28:12.768|10=152|
 IN 20250518-21:28:12.782260727 8=FIX.4.4|9=65|35=0|49=EdgeORD|56=REUTERSLFX-ORD|34=25|52=20250518-21:28:12.781|10=148|
OUT 20250518-21:28:42.768543982 8=FIX.4.4|9=65|35=0|49=REUTERSLFX-ORD|56=EdgeORD|34=25|52=20250518-21:28:42.768|10=156|
 IN 20250518-21:28:42.782392439 8=FIX.4.4|9=65|35=0|49=EdgeORD|56=REUTERSLFX-ORD|34=26|52=20250518-21:28:42.781|10=152|
OUT 20250518-21:29:12.768645289 8=FIX.4.4|9=65|35=0|49=REUTERSLFX-ORD|56=EdgeORD|34=26|52=20250518-21:29:12.768|10=155|
 IN 20250518-21:29:12.782542377 8=FIX.4.4|9=65|35=0|49=EdgeORD|56=REUTERSLFX-ORD|34=27|52=20250518-21:29:12.781|10=151|
OUT 20250518-21:29:42.768718793 8=FIX.4.4|9=65|35=0|49=REUTERSLFX-ORD|56=EdgeORD|34=27|52=20250518-21:29:42.768|10=159|
 IN 20250518-21:29:42.782673139 8=FIX.4.4|9=65|35=0|49=EdgeORD|56=REUTERSLFX-ORD|34=28|52=20250518-21:29:42.782|10=156|
OUT 20250518-21:30:12.768796468 8=FIX.4.4|9=65|35=0|49=REUTERSLFX-ORD|56=EdgeORD|34=28|52=20250518-21:30:12.768|10=149|
 IN 20250518-21:30:12.782825943 8=FIX.4.4|9=65|35=0|49=EdgeORD|56=REUTERSLFX-ORD|34=29|52=20250518-21:30:12.782|10=146|
OUT 20250518-21:30:42.768900382 8=FIX.4.4|9=65|35=0|49=REUTERSLFX-ORD|56=EdgeORD|34=29|52=20250518-21:30:42.768|10=153|
 IN 20250518-21:30:42.782930509 8=FIX.4.4|9=65|35=0|49=EdgeORD|56=REUTERSLFX-ORD|34=30|52=20250518-21:30:42.782|10=141|
OUT 20250518-21:31:12.768956117 8=FIX.4.4|9=65|35=0|49=REUTERSLFX-ORD|56=EdgeORD|34=30|52=20250518-21:31:12.768|10=143|
 IN 20250518-21:31:12.783074913 8=FIX.4.4|9=65|35=0|49=EdgeORD|56=REUTERSLFX-ORD|34=31|52=20250518-21:31:12.782|10=140|
OUT 20250518-21:31:42.769021860 8=FIX.4.4|9=65|35=0|49=REUTERSLFX-ORD|56=EdgeORD|34=31|52=20250518-21:31:42.769|10=148|
 IN 20250518-21:31:42.783175474 8=FIX.4.4|9=65|35=0|49=EdgeORD|56=REUTERSLFX-ORD|34=32|52=20250518-21:31:42.782|10=144|
OUT 20250518-21:32:12.769122813 8=FIX.4.4|9=65|35=0|49=REUTERSLFX-ORD|56=EdgeORD|34=32|52=20250518-21:32:12.769|10=147|
 IN 20250518-21:32:12.783288366 8=FIX.4.4|9=65|35=0|49=EdgeORD|56=REUTERSLFX-ORD|34=33|52=20250518-21:32:12.782|10=143|
OUT 20250518-21:32:42.769217057 8=FIX.4.4|9=65|35=0|49=REUTERSLFX-ORD|56=EdgeORD|34=33|52=20250518-21:32:42.769|10=151|
 IN 20250518-21:32:42.783417452 8=FIX.4.4|9=65|35=0|49=EdgeORD|56=REUTERSLFX-ORD|34=34|52=20250518-21:32:42.782|10=147|
OUT 20250518-21:33:12.769313901 8=FIX.4.4|9=65|35=0|49=REUTERSLFX-ORD|56=EdgeORD|34=34|52=20250518-21:33:12.769|10=150|
 IN 20250518-21:33:12.783495618 8=FIX.4.4|9=65|35=0|49=EdgeORD|56=REUTERSLFX-ORD|34=35|52=20250518-21:33:12.782|10=146|
OUT 20250518-21:33:42.769388113 8=FIX.4.4|9=65|35=0|49=REUTERSLFX-ORD|56=EdgeORD|34=35|52=20250518-21:33:42.769|10=154|
 IN 20250518-21:33:42.783627136 8=FIX.4.4|9=65|35=0|49=EdgeORD|56=REUTERSLFX-ORD|34=36|52=20250518-21:33:42.782|10=150|
OUT 20250518-21:34:12.769458729 8=FIX.4.4|9=65|35=0|49=REUTERSLFX-ORD|56=EdgeORD|34=36|52=20250518-21:34:12.769|10=153|
 IN 20250518-21:34:12.783728946 8=FIX.4.4|9=65|35=0|49=EdgeORD|56=REUTERSLFX-ORD|34=37|52=20250518-21:34:12.783|10=150|
OUT 20250518-21:34:42.769515665 8=FIX.4.4|9=65|35=0|49=REUTERSLFX-ORD|56=EdgeORD|34=37|52=20250518-21:34:42.769|10=157|
 IN 20250518-21:34:42.783871153 8=FIX.4.4|9=65|35=0|49=EdgeORD|56=REUTERSLFX-ORD|34=38|52=20250518-21:34:42.783|10=154|
OUT 20250518-21:35:12.769581380 8=FIX.4.4|9=65|35=0|49=REUTERSLFX-ORD|56=EdgeORD|34=38|52=20250518-21:35:12.769|10=156|
 IN 20250518-21:35:12.783980512 8=FIX.4.4|9=65|35=0|49=EdgeORD|56=REUTERSLFX-ORD|34=39|52=20250518-21:35:12.783|10=153|
OUT 20250518-21:35:42.769645342 8=FIX.4.4|9=65|35=0|49=REUTERSLFX-ORD|56=EdgeORD|34=39|52=20250518-21:35:42.769|10=160|
 IN 20250518-21:35:42.784068222 8=FIX.4.4|9=65|35=0|49=EdgeORD|56=REUTERSLFX-ORD|34=40|52=20250518-21:35:42.783|10=148|
OUT 20250518-21:36:12.769738592 8=FIX.4.4|9=65|35=0|49=REUTERSLFX-ORD|56=EdgeORD|34=40|52=20250518-21:36:12.769|10=150|
 IN 20250518-21:36:12.784175740 8=FIX.4.4|9=65|35=0|49=EdgeORD|56=REUTERSLFX-ORD|34=41|52=20250518-21:36:12.783|10=147|
OUT 20250518-21:36:42.769818684 8=FIX.4.4|9=65|35=0|49=REUTERSLFX-ORD|56=EdgeORD|34=41|52=20250518-21:36:42.769|10=154|
 IN 20250518-21:36:42.784282267 8=FIX.4.4|9=65|35=0|49=EdgeORD|56=REUTERSLFX-ORD|34=42|52=20250518-21:36:42.783|10=151|
OUT 20250518-21:37:12.769921907 8=FIX.4.4|9=65|35=0|49=REUTERSLFX-ORD|56=EdgeORD|34=42|52=20250518-21:37:12.769|10=153|
 IN 20250518-21:37:12.784382485 8=FIX.4.4|9=65|35=0|49=EdgeORD|56=REUTERSLFX-ORD|34=43|52=20250518-21:37:12.783|10=150|
OUT 20250518-21:37:42.770000827 8=FIX.4.4|9=65|35=0|49=REUTERSLFX-ORD|56=EdgeORD|34=43|52=20250518-21:37:42.770|10=149|
 IN 20250518-21:37:42.784487484 8=FIX.4.4|9=65|35=0|49=EdgeORD|56=REUTERSLFX-ORD|34=44|52=20250518-21:37:42.783|10=154|
OUT 20250518-21:38:12.770074340 8=FIX.4.4|9=65|35=0|49=REUTERSLFX-ORD|56=EdgeORD|34=44|52=20250518-21:38:12.770|10=148|
 IN 20250518-21:38:12.784580996 8=FIX.4.4|9=65|35=0|49=EdgeORD|56=REUTERSLFX-ORD|34=45|52=20250518-21:38:12.783|10=153|
OUT 20250518-21:38:42.770128782 8=FIX.4.4|9=65|35=0|49=REUTERSLFX-ORD|56=EdgeORD|34=45|52=20250518-21:38:42.770|10=152|
 IN 20250518-21:38:42.784673955 8=FIX.4.4|9=65|35=0|49=EdgeORD|56=REUTERSLFX-ORD|34=46|52=20250518-21:38:42.784|10=158|
OUT 20250518-21:39:12.770224359 8=FIX.4.4|9=65|35=0|49=REUTERSLFX-ORD|56=EdgeORD|34=46|52=20250518-21:39:12.770|10=151|
 IN 20250518-21:39:12.784823758 8=FIX.4.4|9=65|35=0|49=EdgeORD|56=REUTERSLFX-ORD|34=47|52=20250518-21:39:12.784|10=157|
OUT 20250518-21:39:42.770276790 8=FIX.4.4|9=65|35=0|49=REUTERSLFX-ORD|56=EdgeORD|34=47|52=20250518-21:39:42.770|10=155|
 IN 20250518-21:39:42.784932904 8=FIX.4.4|9=65|35=0|49=EdgeORD|56=REUTERSLFX-ORD|34=48|52=20250518-21:39:42.784|10=161|
OUT 20250518-21:40:12.770333778 8=FIX.4.4|9=65|35=0|49=REUTERSLFX-ORD|56=EdgeORD|34=48|52=20250518-21:40:12.770|10=145|
 IN 20250518-21:40:12.785013018 8=FIX.4.4|9=65|35=0|49=EdgeORD|56=REUTERSLFX-ORD|34=49|52=20250518-21:40:12.784|10=151|
OUT 20250518-21:40:42.770419838 8=FIX.4.4|9=65|35=0|49=REUTERSLFX-ORD|56=EdgeORD|34=49|52=20250518-21:40:42.770|10=149|
 IN 20250518-21:40:42.785149342 8=FIX.4.4|9=65|35=0|49=EdgeORD|56=REUTERSLFX-ORD|34=50|52=20250518-21:40:42.784|10=146|
OUT 20250518-21:41:12.770519042 8=FIX.4.4|9=65|35=0|49=REUTERSLFX-ORD|56=EdgeORD|34=50|52=20250518-21:41:12.770|10=139|
 IN 20250518-21:41:12.785267612 8=FIX.4.4|9=65|35=0|49=EdgeORD|56=REUTERSLFX-ORD|34=51|52=20250518-21:41:12.784|10=145|
OUT 20250518-21:41:42.770590616 8=FIX.4.4|9=65|35=0|49=REUTERSLFX-ORD|56=EdgeORD|34=51|52=20250518-21:41:42.770|10=143|
 IN 20250518-21:41:42.785378815 8=FIX.4.4|9=65|35=0|49=EdgeORD|56=REUTERSLFX-ORD|34=52|52=20250518-21:41:42.784|10=149|
OUT 20250518-21:42:12.770682799 8=FIX.4.4|9=65|35=0|49=REUTERSLFX-ORD|56=EdgeORD|34=52|52=20250518-21:42:12.770|10=142|
 IN 20250518-21:42:12.785511418 8=FIX.4.4|9=65|35=0|49=EdgeORD|56=REUTERSLFX-ORD|34=53|52=20250518-21:42:12.784|10=148|
OUT 20250518-21:42:42.770778565 8=FIX.4.4|9=65|35=0|49=REUTERSLFX-ORD|56=EdgeORD|34=53|52=20250518-21:42:42.770|10=146|
 IN 20250518-21:42:42.785623193 8=FIX.4.4|9=65|35=0|49=EdgeORD|56=REUTERSLFX-ORD|34=54|52=20250518-21:42:42.784|10=152|
OUT 20250518-21:43:12.770873893 8=FIX.4.4|9=65|35=0|49=REUTERSLFX-ORD|56=EdgeORD|34=54|52=20250518-21:43:12.770|10=145|
 IN 20250518-21:43:12.785725626 8=FIX.4.4|9=65|35=0|49=EdgeORD|56=REUTERSLFX-ORD|34=55|52=20250518-21:43:12.785|10=152|
OUT 20250518-21:43:42.770972277 8=FIX.4.4|9=65|35=0|49=REUTERSLFX-ORD|56=EdgeORD|34=55|52=20250518-21:43:42.770|10=149|
 IN 20250518-21:43:42.785815240 8=FIX.4.4|9=65|35=0|49=EdgeORD|56=REUTERSLFX-ORD|34=56|52=20250518-21:43:42.785|10=156|
OUT 20250518-21:44:12.771078224 8=FIX.4.4|9=65|35=0|49=REUTERSLFX-ORD|56=EdgeORD|34=56|52=20250518-21:44:12.771|10=149|
 IN 20250518-21:44:12.785940158 8=FIX.4.4|9=65|35=0|49=EdgeORD|56=REUTERSLFX-ORD|34=57|52=20250518-21:44:12.785|10=155|
OUT 20250518-21:44:42.771142979 8=FIX.4.4|9=65|35=0|49=REUTERSLFX-ORD|56=EdgeORD|34=57|52=20250518-21:44:42.771|10=153|
 IN 20250518-21:44:42.786028917 8=FIX.4.4|9=65|35=0|49=EdgeORD|56=REUTERSLFX-ORD|34=58|52=20250518-21:44:42.785|10=159|
OUT 20250518-21:45:12.771216395 8=FIX.4.4|9=65|35=0|49=REUTERSLFX-ORD|56=EdgeORD|34=58|52=20250518-21:45:12.771|10=152|
 IN 20250518-21:45:12.786133117 8=FIX.4.4|9=65|35=0|49=EdgeORD|56=REUTERSLFX-ORD|34=59|52=20250518-21:45:12.785|10=158|
OUT 20250518-21:45:42.771332336 8=FIX.4.4|9=65|35=0|49=REUTERSLFX-ORD|56=EdgeORD|34=59|52=20250518-21:45:42.771|10=156|
 IN 20250518-21:45:42.786258618 8=FIX.4.4|9=65|35=0|49=EdgeORD|56=REUTERSLFX-ORD|34=60|52=20250518-21:45:42.785|10=153|
OUT 20250518-21:46:12.771469381 8=FIX.4.4|9=65|35=0|49=REUTERSLFX-ORD|56=EdgeORD|34=60|52=20250518-21:46:12.771|10=146|
 IN 20250518-21:46:12.786382399 8=FIX.4.4|9=65|35=0|49=EdgeORD|56=REUTERSLFX-ORD|34=61|52=20250518-21:46:12.785|10=152|
OUT 20250518-21:46:42.771571799 8=FIX.4.4|9=65|35=0|49=REUTERSLFX-ORD|56=EdgeORD|34=61|52=20250518-21:46:42.771|10=150|
 IN 20250518-21:46:42.786528593 8=FIX.4.4|9=65|35=0|49=EdgeORD|56=REUTERSLFX-ORD|34=62|52=20250518-21:46:42.785|10=156|
OUT 20250518-21:47:12.771646434 8=FIX.4.4|9=65|35=0|49=REUTERSLFX-ORD|56=EdgeORD|34=62|52=20250518-21:47:12.771|10=149|
 IN 20250518-21:47:12.786639635 8=FIX.4.4|9=65|35=0|49=EdgeORD|56=REUTERSLFX-ORD|34=63|52=20250518-21:47:12.785|10=155|
OUT 20250518-21:47:42.771694372 8=FIX.4.4|9=65|35=0|49=REUTERSLFX-ORD|56=EdgeORD|34=63|52=20250518-21:47:42.771|10=153|
 IN 20250518-21:47:42.786717545 8=FIX.4.4|9=65|35=0|49=EdgeORD|56=REUTERSLFX-ORD|34=64|52=20250518-21:47:42.786|10=160|
OUT 20250518-21:48:12.771772243 8=FIX.4.4|9=65|35=0|49=REUTERSLFX-ORD|56=EdgeORD|34=64|52=20250518-21:48:12.771|10=152|
 IN 20250518-21:48:12.786827097 8=FIX.4.4|9=65|35=0|49=EdgeORD|56=REUTERSLFX-ORD|34=65|52=20250518-21:48:12.786|10=159|
OUT 20250518-21:48:42.771833892 8=FIX.4.4|9=65|35=0|49=REUTERSLFX-ORD|56=EdgeORD|34=65|52=20250518-21:48:42.771|10=156|
 IN 20250518-21:48:42.786938255 8=FIX.4.4|9=65|35=0|49=EdgeORD|56=REUTERSLFX-ORD|34=66|52=20250518-21:48:42.786|10=163|
OUT 20250518-21:49:12.771929277 8=FIX.4.4|9=65|35=0|49=REUTERSLFX-ORD|56=EdgeORD|34=66|52=20250518-21:49:12.771|10=155|
 IN 20250518-21:49:12.787068897 8=FIX.4.4|9=65|35=0|49=EdgeORD|56=REUTERSLFX-ORD|34=67|52=20250518-21:49:12.786|10=162|
OUT 20250518-21:49:42.772029397 8=FIX.4.4|9=65|35=0|49=REUTERSLFX-ORD|56=EdgeORD|34=67|52=20250518-21:49:42.772|10=160|
 IN 20250518-21:49:42.787199362 8=FIX.4.4|9=65|35=0|49=EdgeORD|56=REUTERSLFX-ORD|34=68|52=20250518-21:49:42.786|10=166|
OUT 20250518-21:50:12.772091500 8=FIX.4.4|9=65|35=0|49=REUTERSLFX-ORD|56=EdgeORD|34=68|52=20250518-21:50:12.772|10=150|
 IN 20250518-21:50:12.787311249 8=FIX.4.4|9=65|35=0|49=EdgeORD|56=REUTERSLFX-ORD|34=69|52=20250518-21:50:12.786|10=156|
OUT 20250518-21:50:42.772192011 8=FIX.4.4|9=65|35=0|49=REUTERSLFX-ORD|56=EdgeORD|34=69|52=20250518-21:50:42.772|10=154|
 IN 20250518-21:50:42.787448339 8=FIX.4.4|9=65|35=0|49=EdgeORD|56=REUTERSLFX-ORD|34=70|52=20250518-21:50:42.786|10=151|
OUT 20250518-21:51:12.772258500 8=FIX.4.4|9=65|35=0|49=REUTERSLFX-ORD|56=EdgeORD|34=70|52=20250518-21:51:12.772|10=144|
 IN 20250518-21:51:12.787589842 8=FIX.4.4|9=65|35=0|49=EdgeORD|56=REUTERSLFX-ORD|34=71|52=20250518-21:51:12.786|10=150|
OUT 20250518-21:51:42.772325983 8=FIX.4.4|9=65|35=0|49=REUTERSLFX-ORD|56=EdgeORD|34=71|52=20250518-21:51:42.772|10=148|
 IN 20250518-21:51:42.787659719 8=FIX.4.4|9=65|35=0|49=EdgeORD|56=REUTERSLFX-ORD|34=72|52=20250518-21:51:42.786|10=154|
OUT 20250518-21:52:12.772393637 8=FIX.4.4|9=65|35=0|49=REUTERSLFX-ORD|56=EdgeORD|34=72|52=20250518-21:52:12.772|10=147|
 IN 20250518-21:52:12.787761636 8=FIX.4.4|9=65|35=0|49=EdgeORD|56=REUTERSLFX-ORD|34=73|52=20250518-21:52:12.787|10=154|
OUT 20250518-21:52:42.772468678 8=FIX.4.4|9=65|35=0|49=REUTERSLFX-ORD|56=EdgeORD|34=73|52=20250518-21:52:42.772|10=151|
 IN 20250518-21:52:42.787909769 8=FIX.4.4|9=65|35=0|49=EdgeORD|56=REUTERSLFX-ORD|34=74|52=20250518-21:52:42.787|10=158|
OUT 20250518-21:53:12.772516690 8=FIX.4.4|9=65|35=0|49=REUTERSLFX-ORD|56=EdgeORD|34=74|52=20250518-21:53:12.772|10=150|
 IN 20250518-21:53:12.788031116 8=FIX.4.4|9=65|35=0|49=EdgeORD|56=REUTERSLFX-ORD|34=75|52=20250518-21:53:12.787|10=157|
OUT 20250518-21:53:42.772568367 8=FIX.4.4|9=65|35=0|49=REUTERSLFX-ORD|56=EdgeORD|34=75|52=20250518-21:53:42.772|10=154|
 IN 20250518-21:53:42.788130955 8=FIX.4.4|9=65|35=0|49=EdgeORD|56=REUTERSLFX-ORD|34=76|52=20250518-21:53:42.787|10=161|
OUT 20250518-21:54:12.772651772 8=FIX.4.4|9=65|35=0|49=REUTERSLFX-ORD|56=EdgeORD|34=76|52=20250518-21:54:12.772|10=153|
 IN 20250518-21:54:12.788260463 8=FIX.4.4|9=65|35=0|49=EdgeORD|56=REUTERSLFX-ORD|34=77|52=20250518-21:54:12.787|10=160|
OUT 20250518-21:54:42.772751773 8=FIX.4.4|9=65|35=0|49=REUTERSLFX-ORD|56=EdgeORD|34=77|52=20250518-21:54:42.772|10=157|
 IN 20250518-21:54:42.788345622 8=FIX.4.4|9=65|35=0|49=EdgeORD|56=REUTERSLFX-ORD|34=78|52=20250518-21:54:42.787|10=164|
OUT 20250518-21:55:12.772832945 8=FIX.4.4|9=65|35=0|49=REUTERSLFX-ORD|56=EdgeORD|34=78|52=20250518-21:55:12.772|10=156|
 IN 20250518-21:55:12.788507642 8=FIX.4.4|9=65|35=0|49=EdgeORD|56=REUTERSLFX-ORD|34=79|52=20250518-21:55:12.787|10=163|
OUT 20250518-21:55:42.772939814 8=FIX.4.4|9=65|35=0|49=REUTERSLFX-ORD|56=EdgeORD|34=79|52=20250518-21:55:42.772|10=160|
 IN 20250518-21:55:42.788614371 8=FIX.4.4|9=65|35=0|49=EdgeORD|56=REUTERSLFX-ORD|34=80|52=20250518-21:55:42.787|10=158|
OUT 20250518-21:56:12.773070297 8=FIX.4.4|9=65|35=0|49=REUTERSLFX-ORD|56=EdgeORD|34=80|52=20250518-21:56:12.773|10=151|
 IN 20250518-21:56:12.788716743 8=FIX.4.4|9=65|35=0|49=EdgeORD|56=REUTERSLFX-ORD|34=81|52=20250518-21:56:12.788|10=158|
OUT 20250518-21:56:42.773148739 8=FIX.4.4|9=65|35=0|49=REUTERSLFX-ORD|56=EdgeORD|34=81|52=20250518-21:56:42.773|10=155|
 IN 20250518-21:56:42.788845476 8=FIX.4.4|9=65|35=0|49=EdgeORD|56=REUTERSLFX-ORD|34=82|52=20250518-21:56:42.788|10=162|
OUT 20250518-21:57:12.773245448 8=FIX.4.4|9=65|35=0|49=REUTERSLFX-ORD|56=EdgeORD|34=82|52=20250518-21:57:12.773|10=154|
 IN 20250518-21:57:12.788918202 8=FIX.4.4|9=65|35=0|49=EdgeORD|56=REUTERSLFX-ORD|34=83|52=20250518-21:57:12.788|10=161|
OUT 20250518-21:57:42.773327188 8=FIX.4.4|9=65|35=0|49=REUTERSLFX-ORD|56=EdgeORD|34=83|52=20250518-21:57:42.773|10=158|
 IN 20250518-21:57:42.789031751 8=FIX.4.4|9=65|35=0|49=EdgeORD|56=REUTERSLFX-ORD|34=84|52=20250518-21:57:42.788|10=165|
OUT 20250518-21:58:12.773392385 8=FIX.4.4|9=65|35=0|49=REUTERSLFX-ORD|56=EdgeORD|34=84|52=20250518-21:58:12.773|10=157|
 IN 20250518-21:58:12.789165201 8=FIX.4.4|9=65|35=0|49=EdgeORD|56=REUTERSLFX-ORD|34=85|52=20250518-21:58:12.788|10=164|
OUT 20250518-21:58:42.773463928 8=FIX.4.4|9=65|35=0|49=REUTERSLFX-ORD|56=EdgeORD|34=85|52=20250518-21:58:42.773|10=161|
 IN 20250518-21:58:42.789283693 8=FIX.4.4|9=65|35=0|49=EdgeORD|56=REUTERSLFX-ORD|34=86|52=20250518-21:58:42.788|10=168|
OUT 20250518-21:59:12.773589275 8=FIX.4.4|9=65|35=0|49=REUTERSLFX-ORD|56=EdgeORD|34=86|52=20250518-21:59:12.773|10=160|
 IN 20250518-21:59:12.789393185 8=FIX.4.4|9=65|35=0|49=EdgeORD|56=REUTERSLFX-ORD|34=87|52=20250518-21:59:12.788|10=167|
OUT 20250518-21:59:42.773659784 8=FIX.4.4|9=65|35=0|49=REUTERSLFX-ORD|56=EdgeORD|34=87|52=20250518-21:59:42.773|10=164|
 IN 20250518-21:59:42.789491135 8=FIX.4.4|9=65|35=0|49=EdgeORD|56=REUTERSLFX-ORD|34=88|52=20250518-21:59:42.788|10=171|
OUT 20250518-22:00:12.773723609 8=FIX.4.4|9=65|35=0|49=REUTERSLFX-ORD|56=EdgeORD|34=88|52=20250518-22:00:12.773|10=149|
 IN 20250518-22:00:12.789621750 8=FIX.4.4|9=65|35=0|49=EdgeORD|56=REUTERSLFX-ORD|34=89|52=20250518-22:00:12.789|10=157|
OUT 20250518-22:00:42.773778688 8=FIX.4.4|9=65|35=0|49=REUTERSLFX-ORD|56=EdgeORD|34=89|52=20250518-22:00:42.773|10=153|
 IN 20250518-22:00:42.789724522 8=FIX.4.4|9=65|35=0|49=EdgeORD|56=REUTERSLFX-ORD|34=90|52=20250518-22:00:42.789|10=152|
OUT 20250518-22:01:12.773877562 8=FIX.4.4|9=65|35=0|49=REUTERSLFX-ORD|56=EdgeORD|34=90|52=20250518-22:01:12.773|10=143|
 IN 20250518-22:01:12.789845239 8=FIX.4.4|9=65|35=0|49=EdgeORD|56=REUTERSLFX-ORD|34=91|52=20250518-22:01:12.789|10=151|
OUT 20250518-22:01:42.773958895 8=FIX.4.4|9=65|35=0|49=REUTERSLFX-ORD|56=EdgeORD|34=91|52=20250518-22:01:42.773|10=147|
 IN 20250518-22:01:42.789908941 8=FIX.4.4|9=65|35=0|49=EdgeORD|56=REUTERSLFX-ORD|34=92|52=20250518-22:01:42.789|10=155|
OUT 20250518-22:02:12.774057093 8=FIX.4.4|9=65|35=0|49=REUTERSLFX-ORD|56=EdgeORD|34=92|52=20250518-22:02:12.774|10=147|
 IN 20250518-22:02:12.790022608 8=FIX.4.4|9=65|35=0|49=EdgeORD|56=REUTERSLFX-ORD|34=93|52=20250518-22:02:12.789|10=154|
OUT 20250518-22:02:42.774155641 8=FIX.4.4|9=65|35=0|49=REUTERSLFX-ORD|56=EdgeORD|34=93|52=20250518-22:02:42.774|10=151|
 IN 20250518-22:02:42.790146970 8=FIX.4.4|9=65|35=0|49=EdgeORD|56=REUTERSLFX-ORD|34=94|52=20250518-22:02:42.789|10=158|
OUT 20250518-22:03:12.774217303 8=FIX.4.4|9=65|35=0|49=REUTERSLFX-ORD|56=EdgeORD|34=94|52=20250518-22:03:12.774|10=150|
 IN 20250518-22:03:12.790271607 8=FIX.4.4|9=65|35=0|49=EdgeORD|56=REUTERSLFX-ORD|34=95|52=20250518-22:03:12.789|10=157|
OUT 20250518-22:03:42.774260189 8=FIX.4.4|9=65|35=0|49=REUTERSLFX-ORD|56=EdgeORD|34=95|52=20250518-22:03:42.774|10=154|
 IN 20250518-22:03:42.790357554 8=FIX.4.4|9=65|35=0|49=EdgeORD|56=REUTERSLFX-ORD|34=96|52=20250518-22:03:42.789|10=161|
OUT 20250518-22:04:12.774335454 8=FIX.4.4|9=65|35=0|49=REUTERSLFX-ORD|56=EdgeORD|34=96|52=20250518-22:04:12.774|10=153|
 IN 20250518-22:04:12.790474480 8=FIX.4.4|9=65|35=0|49=EdgeORD|56=REUTERSLFX-ORD|34=97|52=20250518-22:04:12.790|10=152|
OUT 20250518-22:04:42.774431777 8=FIX.4.4|9=65|35=0|49=REUTERSLFX-ORD|56=EdgeORD|34=97|52=20250518-22:04:42.774|10=157|
 IN 20250518-22:04:42.790580892 8=FIX.4.4|9=65|35=0|49=EdgeORD|56=REUTERSLFX-ORD|34=98|52=20250518-22:04:42.790|10=156|
OUT 20250518-22:05:12.774524006 8=FIX.4.4|9=65|35=0|49=REUTERSLFX-ORD|56=EdgeORD|34=98|52=20250518-22:05:12.774|10=156|
 IN 20250518-22:05:12.790687661 8=FIX.4.4|9=65|35=0|49=EdgeORD|56=REUTERSLFX-ORD|34=99|52=20250518-22:05:12.790|10=155|
OUT 20250518-22:05:42.774590918 8=FIX.4.4|9=65|35=0|49=REUTERSLFX-ORD|56=EdgeORD|34=99|52=20250518-22:05:42.774|10=160|
 IN 20250518-22:05:42.790924054 8=FIX.4.4|9=66|35=0|49=EdgeORD|56=REUTERSLFX-ORD|34=100|52=20250518-22:05:42.790|10=190|
OUT 20250518-22:06:12.774686332 8=FIX.4.4|9=66|35=0|49=REUTERSLFX-ORD|56=EdgeORD|34=100|52=20250518-22:06:12.774|10=190|
 IN 20250518-22:06:12.791030908 8=FIX.4.4|9=66|35=0|49=EdgeORD|56=REUTERSLFX-ORD|34=101|52=20250518-22:06:12.790|10=189|
OUT 20250518-22:06:42.774779966 8=FIX.4.4|9=66|35=0|49=REUTERSLFX-ORD|56=EdgeORD|34=101|52=20250518-22:06:42.774|10=194|
 IN 20250518-22:06:42.791144806 8=FIX.4.4|9=66|35=0|49=EdgeORD|56=REUTERSLFX-ORD|34=102|52=20250518-22:06:42.790|10=193|
OUT 20250518-22:07:12.774848185 8=FIX.4.4|9=66|35=0|49=REUTERSLFX-ORD|56=EdgeORD|34=102|52=20250518-22:07:12.774|10=193|
 IN 20250518-22:07:12.791257973 8=FIX.4.4|9=66|35=0|49=EdgeORD|56=REUTERSLFX-ORD|34=103|52=20250518-22:07:12.790|10=192|
OUT 20250518-22:07:42.774913765 8=FIX.4.4|9=66|35=0|49=REUTERSLFX-ORD|56=EdgeORD|34=103|52=20250518-22:07:42.774|10=197|
 IN 20250518-22:07:42.791332437 8=FIX.4.4|9=66|35=0|49=EdgeORD|56=REUTERSLFX-ORD|34=104|52=20250518-22:07:42.790|10=196|
OUT 20250518-22:08:12.775019525 8=FIX.4.4|9=66|35=0|49=REUTERSLFX-ORD|56=EdgeORD|34=104|52=20250518-22:08:12.775|10=197|
 IN 20250518-22:08:12.791409303 8=FIX.4.4|9=66|35=0|49=EdgeORD|56=REUTERSLFX-ORD|34=105|52=20250518-22:08:12.790|10=195|
OUT 20250518-22:08:42.775093926 8=FIX.4.4|9=66|35=0|49=REUTERSLFX-ORD|56=EdgeORD|34=105|52=20250518-22:08:42.775|10=201|
 IN 20250518-22:08:42.791549581 8=FIX.4.4|9=66|35=0|49=EdgeORD|56=REUTERSLFX-ORD|34=106|52=20250518-22:08:42.791|10=200|
OUT 20250518-22:09:12.775191073 8=FIX.4.4|9=66|35=0|49=REUTERSLFX-ORD|56=EdgeORD|34=106|52=20250518-22:09:12.775|10=200|
 IN 20250518-22:09:12.791675364 8=FIX.4.4|9=66|35=0|49=EdgeORD|56=REUTERSLFX-ORD|34=107|52=20250518-22:09:12.791|10=199|
OUT 20250518-22:09:42.775263281 8=FIX.4.4|9=66|35=0|49=REUTERSLFX-ORD|56=EdgeORD|34=107|52=20250518-22:09:42.775|10=204|
 IN 20250518-22:09:42.791854761 8=FIX.4.4|9=66|35=0|49=EdgeORD|56=REUTERSLFX-ORD|34=108|52=20250518-22:09:42.791|10=203|
OUT 20250518-22:10:12.775329167 8=FIX.4.4|9=66|35=0|49=REUTERSLFX-ORD|56=EdgeORD|34=108|52=20250518-22:10:12.775|10=194|
 IN 20250518-22:10:12.791996289 8=FIX.4.4|9=66|35=0|49=EdgeORD|56=REUTERSLFX-ORD|34=109|52=20250518-22:10:12.791|10=193|
OUT 20250518-22:10:42.775422186 8=FIX.4.4|9=66|35=0|49=REUTERSLFX-ORD|56=EdgeORD|34=109|52=20250518-22:10:42.775|10=198|
 IN 20250518-22:10:42.792142419 8=FIX.4.4|9=66|35=0|49=EdgeORD|56=REUTERSLFX-ORD|34=110|52=20250518-22:10:42.791|10=188|
OUT 20250518-22:11:12.775516868 8=FIX.4.4|9=66|35=0|49=REUTERSLFX-ORD|56=EdgeORD|34=110|52=20250518-22:11:12.775|10=188|
 IN 20250518-22:11:12.792268816 8=FIX.4.4|9=66|35=0|49=EdgeORD|56=REUTERSLFX-ORD|34=111|52=20250518-22:11:12.791|10=187|
OUT 20250518-22:11:42.775580005 8=FIX.4.4|9=66|35=0|49=REUTERSLFX-ORD|56=EdgeORD|34=111|52=20250518-22:11:42.775|10=192|
 IN 20250518-22:11:42.792340179 8=FIX.4.4|9=66|35=0|49=EdgeORD|56=REUTERSLFX-ORD|34=112|52=20250518-22:11:42.791|10=191|
OUT 20250518-22:12:12.775638638 8=FIX.4.4|9=66|35=0|49=REUTERSLFX-ORD|56=EdgeORD|34=112|52=20250518-22:12:12.775|10=191|
 IN 20250518-22:12:12.792368915 8=FIX.4.4|9=66|35=0|49=EdgeORD|56=REUTERSLFX-ORD|34=113|52=20250518-22:12:12.791|10=190|
OUT 20250518-22:12:42.775704553 8=FIX.4.4|9=66|35=0|49=REUTERSLFX-ORD|56=EdgeORD|34=113|52=20250518-22:12:42.775|10=195|
 IN 20250518-22:12:42.792372533 8=FIX.4.4|9=66|35=0|49=EdgeORD|56=REUTERSLFX-ORD|34=114|52=20250518-22:12:42.791|10=194|
OUT 20250518-22:13:12.775762713 8=FIX.4.4|9=66|35=0|49=REUTERSLFX-ORD|56=EdgeORD|34=114|52=20250518-22:13:12.775|10=194|
 IN 20250518-22:13:12.792390674 8=FIX.4.4|9=66|35=0|49=EdgeORD|56=REUTERSLFX-ORD|34=115|52=20250518-22:13:12.792|10=194|
OUT 20250518-22:13:42.775838594 8=FIX.4.4|9=66|35=0|49=REUTERSLFX-ORD|56=EdgeORD|34=115|52=20250518-22:13:42.775|10=198|
 IN 20250518-22:13:42.792512287 8=FIX.4.4|9=66|35=0|49=EdgeORD|56=REUTERSLFX-ORD|34=116|52=20250518-22:13:42.792|10=198|
OUT 20250518-22:14:12.775895199 8=FIX.4.4|9=66|35=0|49=REUTERSLFX-ORD|56=EdgeORD|34=116|52=20250518-22:14:12.775|10=197|
 IN 20250518-22:14:12.792587533 8=FIX.4.4|9=66|35=0|49=EdgeORD|56=REUTERSLFX-ORD|34=117|52=20250518-22:14:12.792|10=197|
OUT 20250518-22:14:42.775960866 8=FIX.4.4|9=66|35=0|49=REUTERSLFX-ORD|56=EdgeORD|34=117|52=20250518-22:14:42.775|10=201|
 IN 20250518-22:14:42.792753293 8=FIX.4.4|9=66|35=0|49=EdgeORD|56=REUTERSLFX-ORD|34=118|52=20250518-22:14:42.792|10=201|
OUT 20250518-22:15:12.776063195 8=FIX.4.4|9=66|35=0|49=REUTERSLFX-ORD|56=EdgeORD|34=118|52=20250518-22:15:12.776|10=201|
 IN 20250518-22:15:12.792809358 8=FIX.4.4|9=66|35=0|49=EdgeORD|56=REUTERSLFX-ORD|34=119|52=20250518-22:15:12.792|10=200|
OUT 20250518-22:15:42.776154726 8=FIX.4.4|9=66|35=0|49=REUTERSLFX-ORD|56=EdgeORD|34=119|52=20250518-22:15:42.776|10=205|
 IN 20250518-22:15:42.792874708 8=FIX.4.4|9=66|35=0|49=EdgeORD|56=REUTERSLFX-ORD|34=120|52=20250518-22:15:42.792|10=195|
OUT 20250518-22:16:12.776240999 8=FIX.4.4|9=66|35=0|49=REUTERSLFX-ORD|56=EdgeORD|34=120|52=20250518-22:16:12.776|10=195|
 IN 20250518-22:16:12.793016907 8=FIX.4.4|9=66|35=0|49=EdgeORD|56=REUTERSLFX-ORD|34=121|52=20250518-22:16:12.792|10=194|
OUT 20250518-22:16:42.776318399 8=FIX.4.4|9=66|35=0|49=REUTERSLFX-ORD|56=EdgeORD|34=121|52=20250518-22:16:42.776|10=199|
 IN 20250518-22:16:42.793089894 8=FIX.4.4|9=66|35=0|49=EdgeORD|56=REUTERSLFX-ORD|34=122|52=20250518-22:16:42.792|10=198|
OUT 20250518-22:17:12.776425716 8=FIX.4.4|9=66|35=0|49=REUTERSLFX-ORD|56=EdgeORD|34=122|52=20250518-22:17:12.776|10=198|
 IN 20250518-22:17:12.793213798 8=FIX.4.4|9=66|35=0|49=EdgeORD|56=REUTERSLFX-ORD|34=123|52=20250518-22:17:12.793|10=198|
OUT 20250518-22:17:42.776514636 8=FIX.4.4|9=66|35=0|49=REUTERSLFX-ORD|56=EdgeORD|34=123|52=20250518-22:17:42.776|10=202|
 IN 20250518-22:17:42.793349629 8=FIX.4.4|9=66|35=0|49=EdgeORD|56=REUTERSLFX-ORD|34=124|52=20250518-22:17:42.793|10=202|
OUT 20250518-22:18:12.776578604 8=FIX.4.4|9=66|35=0|49=REUTERSLFX-ORD|56=EdgeORD|34=124|52=20250518-22:18:12.776|10=201|
 IN 20250518-22:18:12.793470914 8=FIX.4.4|9=66|35=0|49=EdgeORD|56=REUTERSLFX-ORD|34=125|52=20250518-22:18:12.793|10=201|
OUT 20250518-22:18:42.776664696 8=FIX.4.4|9=66|35=0|49=REUTERSLFX-ORD|56=EdgeORD|34=125|52=20250518-22:18:42.776|10=205|
 IN 20250518-22:18:42.793588827 8=FIX.4.4|9=66|35=0|49=EdgeORD|56=REUTERSLFX-ORD|34=126|52=20250518-22:18:42.793|10=205|
OUT 20250518-22:19:12.776763835 8=FIX.4.4|9=66|35=0|49=REUTERSLFX-ORD|56=EdgeORD|34=126|52=20250518-22:19:12.776|10=204|
 IN 20250518-22:19:12.793671544 8=FIX.4.4|9=66|35=0|49=EdgeORD|56=REUTERSLFX-ORD|34=127|52=20250518-22:19:12.793|10=204|
OUT 20250518-22:19:42.776840703 8=FIX.4.4|9=66|35=0|49=REUTERSLFX-ORD|56=EdgeORD|34=127|52=20250518-22:19:42.776|10=208|
 IN 20250518-22:19:42.793797243 8=FIX.4.4|9=66|35=0|49=EdgeORD|56=REUTERSLFX-ORD|34=128|52=20250518-22:19:42.793|10=208|
OUT 20250518-22:20:12.776902172 8=FIX.4.4|9=66|35=0|49=REUTERSLFX-ORD|56=EdgeORD|34=128|52=20250518-22:20:12.776|10=198|
 IN 20250518-22:20:12.793913917 8=FIX.4.4|9=66|35=0|49=EdgeORD|56=REUTERSLFX-ORD|34=129|52=20250518-22:20:12.793|10=198|
OUT 20250518-22:20:42.777000215 8=FIX.4.4|9=66|35=0|49=REUTERSLFX-ORD|56=EdgeORD|34=129|52=20250518-22:20:42.777|10=203|
 IN 20250518-22:20:42.794052728 8=FIX.4.4|9=66|35=0|49=EdgeORD|56=REUTERSLFX-ORD|34=130|52=20250518-22:20:42.793|10=193|
OUT 20250518-22:21:12.777093180 8=FIX.4.4|9=66|35=0|49=REUTERSLFX-ORD|56=EdgeORD|34=130|52=20250518-22:21:12.777|10=193|
 IN 20250518-22:21:12.794188223 8=FIX.4.4|9=66|35=0|49=EdgeORD|56=REUTERSLFX-ORD|34=131|52=20250518-22:21:12.793|10=192|
OUT 20250518-22:21:42.777186339 8=FIX.4.4|9=66|35=0|49=REUTERSLFX-ORD|56=EdgeORD|34=131|52=20250518-22:21:42.777|10=197|
 IN 20250518-22:21:42.794291554 8=FIX.4.4|9=66|35=0|49=EdgeORD|56=REUTERSLFX-ORD|34=132|52=20250518-22:21:42.794|10=197|
OUT 20250518-22:22:12.777274225 8=FIX.4.4|9=66|35=0|49=REUTERSLFX-ORD|56=EdgeORD|34=132|52=20250518-22:22:12.777|10=196|
 IN 20250518-22:22:12.794424224 8=FIX.4.4|9=66|35=0|49=EdgeORD|56=REUTERSLFX-ORD|34=133|52=20250518-22:22:12.794|10=196|
OUT 20250518-22:22:42.777344161 8=FIX.4.4|9=66|35=0|49=REUTERSLFX-ORD|56=EdgeORD|34=133|52=20250518-22:22:42.777|10=200|
 IN 20250518-22:22:42.794568156 8=FIX.4.4|9=66|35=0|49=EdgeORD|56=REUTERSLFX-ORD|34=134|52=20250518-22:22:42.794|10=200|
OUT 20250518-22:23:12.777447490 8=FIX.4.4|9=66|35=0|49=REUTERSLFX-ORD|56=EdgeORD|34=134|52=20250518-22:23:12.777|10=199|
 IN 20250518-22:23:12.794722083 8=FIX.4.4|9=66|35=0|49=EdgeORD|56=REUTERSLFX-ORD|34=135|52=20250518-22:23:12.794|10=199|
OUT 20250518-22:23:42.777531294 8=FIX.4.4|9=66|35=0|49=REUTERSLFX-ORD|56=EdgeORD|34=135|52=20250518-22:23:42.777|10=203|
 IN 20250518-22:23:42.794848920 8=FIX.4.4|9=66|35=0|49=EdgeORD|56=REUTERSLFX-ORD|34=136|52=20250518-22:23:42.794|10=203|
OUT 20250518-22:24:12.777600921 8=FIX.4.4|9=66|35=0|49=REUTERSLFX-ORD|56=EdgeORD|34=136|52=20250518-22:24:12.777|10=202|
 IN 20250518-22:24:12.794986310 8=FIX.4.4|9=66|35=0|49=EdgeORD|56=REUTERSLFX-ORD|34=137|52=20250518-22:24:12.794|10=202|
OUT 20250518-22:24:42.777691915 8=FIX.4.4|9=66|35=0|49=REUTERSLFX-ORD|56=EdgeORD|34=137|52=20250518-22:24:42.777|10=206|
 IN 20250518-22:24:42.795121861 8=FIX.4.4|9=66|35=0|49=EdgeORD|56=REUTERSLFX-ORD|34=138|52=20250518-22:24:42.794|10=206|
OUT 20250518-22:25:12.777784805 8=FIX.4.4|9=66|35=0|49=REUTERSLFX-ORD|56=EdgeORD|34=138|52=20250518-22:25:12.777|10=205|
 IN 20250518-22:25:12.795248481 8=FIX.4.4|9=66|35=0|49=EdgeORD|56=REUTERSLFX-ORD|34=139|52=20250518-22:25:12.795|10=206|
OUT 20250518-22:25:42.777873584 8=FIX.4.4|9=66|35=0|49=REUTERSLFX-ORD|56=EdgeORD|34=139|52=20250518-22:25:42.777|10=209|
 IN 20250518-22:25:42.795397065 8=FIX.4.4|9=66|35=0|49=EdgeORD|56=REUTERSLFX-ORD|34=140|52=20250518-22:25:42.795|10=201|
OUT 20250518-22:26:12.777980500 8=FIX.4.4|9=66|35=0|49=REUTERSLFX-ORD|56=EdgeORD|34=140|52=20250518-22:26:12.777|10=199|
 IN 20250518-22:26:12.795543599 8=FIX.4.4|9=66|35=0|49=EdgeORD|56=REUTERSLFX-ORD|34=141|52=20250518-22:26:12.795|10=200|
OUT 20250518-22:26:42.778090235 8=FIX.4.4|9=66|35=0|49=REUTERSLFX-ORD|56=EdgeORD|34=141|52=20250518-22:26:42.778|10=204|
 IN 20250518-22:26:42.795687311 8=FIX.4.4|9=66|35=0|49=EdgeORD|56=REUTERSLFX-ORD|34=142|52=20250518-22:26:42.795|10=204|
OUT 20250518-22:27:12.778193764 8=FIX.4.4|9=66|35=0|49=REUTERSLFX-ORD|56=EdgeORD|34=142|52=20250518-22:27:12.778|10=203|
 IN 20250518-22:27:12.795815873 8=FIX.4.4|9=66|35=0|49=EdgeORD|56=REUTERSLFX-ORD|34=143|52=20250518-22:27:12.795|10=203|
OUT 20250518-22:27:42.778279065 8=FIX.4.4|9=66|35=0|49=REUTERSLFX-ORD|56=EdgeORD|34=143|52=20250518-22:27:42.778|10=207|
 IN 20250518-22:27:42.795943845 8=FIX.4.4|9=66|35=0|49=EdgeORD|56=REUTERSLFX-ORD|34=144|52=20250518-22:27:42.795|10=207|
OUT 20250518-22:28:12.778360245 8=FIX.4.4|9=66|35=0|49=REUTERSLFX-ORD|56=EdgeORD|34=144|52=20250518-22:28:12.778|10=206|
 IN 20250518-22:28:12.796021380 8=FIX.4.4|9=66|35=0|49=EdgeORD|56=REUTERSLFX-ORD|34=145|52=20250518-22:28:12.795|10=206|
OUT 20250518-22:28:42.778449163 8=FIX.4.4|9=66|35=0|49=REUTERSLFX-ORD|56=EdgeORD|34=145|52=20250518-22:28:42.778|10=210|
 IN 20250518-22:28:42.796093527 8=FIX.4.4|9=66|35=0|49=EdgeORD|56=REUTERSLFX-ORD|34=146|52=20250518-22:28:42.795|10=210|
OUT 20250518-22:29:12.778534714 8=FIX.4.4|9=66|35=0|49=REUTERSLFX-ORD|56=EdgeORD|34=146|52=20250518-22:29:12.778|10=209|
 IN 20250518-22:29:12.796185739 8=FIX.4.4|9=66|35=0|49=EdgeORD|56=REUTERSLFX-ORD|34=147|52=20250518-22:29:12.796|10=210|
OUT 20250518-22:29:42.778632233 8=FIX.4.4|9=66|35=0|49=REUTERSLFX-ORD|56=EdgeORD|34=147|52=20250518-22:29:42.778|10=213|
 IN 20250518-22:29:42.796337472 8=FIX.4.4|9=66|35=0|49=EdgeORD|56=REUTERSLFX-ORD|34=148|52=20250518-22:29:42.796|10=214|
OUT 20250518-22:30:12.778702930 8=FIX.4.4|9=66|35=0|49=REUTERSLFX-ORD|56=EdgeORD|34=148|52=20250518-22:30:12.778|10=203|
 IN 20250518-22:30:12.796449899 8=FIX.4.4|9=66|35=0|49=EdgeORD|56=REUTERSLFX-ORD|34=149|52=20250518-22:30:12.796|10=204|
OUT 20250518-22:30:42.778745435 8=FIX.4.4|9=66|35=0|49=REUTERSLFX-ORD|56=EdgeORD|34=149|52=20250518-22:30:42.778|10=207|
 IN 20250518-22:30:42.796589191 8=FIX.4.4|9=66|35=0|49=EdgeORD|56=REUTERSLFX-ORD|34=150|52=20250518-22:30:42.796|10=199|
OUT 20250518-22:31:12.778808078 8=FIX.4.4|9=66|35=0|49=REUTERSLFX-ORD|56=EdgeORD|34=150|52=20250518-22:31:12.778|10=197|
 IN 20250518-22:31:12.796725042 8=FIX.4.4|9=66|35=0|49=EdgeORD|56=REUTERSLFX-ORD|34=151|52=20250518-22:31:12.796|10=198|
OUT 20250518-22:31:42.778884163 8=FIX.4.4|9=66|35=0|49=REUTERSLFX-ORD|56=EdgeORD|34=151|52=20250518-22:31:42.778|10=201|
 IN 20250518-22:31:42.796900083 8=FIX.4.4|9=66|35=0|49=EdgeORD|56=REUTERSLFX-ORD|34=152|52=20250518-22:31:42.796|10=202|
OUT 20250518-22:32:12.778968651 8=FIX.4.4|9=66|35=0|49=REUTERSLFX-ORD|56=EdgeORD|34=152|52=20250518-22:32:12.778|10=200|
 IN 20250518-22:32:12.796976925 8=FIX.4.4|9=66|35=0|49=EdgeORD|56=REUTERSLFX-ORD|34=153|52=20250518-22:32:12.796|10=201|
OUT 20250518-22:32:42.779069668 8=FIX.4.4|9=66|35=0|49=REUTERSLFX-ORD|56=EdgeORD|34=153|52=20250518-22:32:42.779|10=205|
 IN 20250518-22:32:42.797100322 8=FIX.4.4|9=66|35=0|49=EdgeORD|56=REUTERSLFX-ORD|34=154|52=20250518-22:32:42.797|10=206|
OUT 20250518-22:33:12.779133499 8=FIX.4.4|9=66|35=0|49=REUTERSLFX-ORD|56=EdgeORD|34=154|52=20250518-22:33:12.779|10=204|
 IN 20250518-22:33:12.797233073 8=FIX.4.4|9=66|35=0|49=EdgeORD|56=REUTERSLFX-ORD|34=155|52=20250518-22:33:12.797|10=205|
OUT 20250518-22:33:42.779220898 8=FIX.4.4|9=66|35=0|49=REUTERSLFX-ORD|56=EdgeORD|34=155|52=20250518-22:33:42.779|10=208|
 IN 20250518-22:33:42.797320046 8=FIX.4.4|9=66|35=0|49=EdgeORD|56=REUTERSLFX-ORD|34=156|52=20250518-22:33:42.797|10=209|
OUT 20250518-22:34:12.779305313 8=FIX.4.4|9=66|35=0|49=REUTERSLFX-ORD|56=EdgeORD|34=156|52=20250518-22:34:12.779|10=207|
 IN 20250518-22:34:12.797403602 8=FIX.4.4|9=66|35=0|49=EdgeORD|56=REUTERSLFX-ORD|34=157|52=20250518-22:34:12.797|10=208|
OUT 20250518-22:34:42.779403845 8=FIX.4.4|9=66|35=0|49=REUTERSLFX-ORD|56=EdgeORD|34=157|52=20250518-22:34:42.779|10=211|
 IN 20250518-22:34:42.797525202 8=FIX.4.4|9=66|35=0|49=EdgeORD|56=REUTERSLFX-ORD|34=158|52=20250518-22:34:42.797|10=212|
OUT 20250518-22:35:12.779465470 8=FIX.4.4|9=66|35=0|49=REUTERSLFX-ORD|56=EdgeORD|34=158|52=20250518-22:35:12.779|10=210|
 IN 20250518-22:35:12.797626224 8=FIX.4.4|9=66|35=0|49=EdgeORD|56=REUTERSLFX-ORD|34=159|52=20250518-22:35:12.797|10=211|
OUT 20250518-22:35:42.779520967 8=FIX.4.4|9=66|35=0|49=REUTERSLFX-ORD|56=EdgeORD|34=159|52=20250518-22:35:42.779|10=214|
 IN 20250518-22:35:42.797747402 8=FIX.4.4|9=66|35=0|49=EdgeORD|56=REUTERSLFX-ORD|34=160|52=20250518-22:35:42.797|10=206|
OUT 20250518-22:36:12.779632702 8=FIX.4.4|9=66|35=0|49=REUTERSLFX-ORD|56=EdgeORD|34=160|52=20250518-22:36:12.779|10=204|
 IN 20250518-22:36:12.797892355 8=FIX.4.4|9=66|35=0|49=EdgeORD|56=REUTERSLFX-ORD|34=161|52=20250518-22:36:12.797|10=205|
OUT 20250518-22:36:42.779700365 8=FIX.4.4|9=66|35=0|49=REUTERSLFX-ORD|56=EdgeORD|34=161|52=20250518-22:36:42.779|10=208|
 IN 20250518-22:36:42.798020886 8=FIX.4.4|9=66|35=0|49=EdgeORD|56=REUTERSLFX-ORD|34=162|52=20250518-22:36:42.797|10=209|
OUT 20250518-22:37:12.779778383 8=FIX.4.4|9=66|35=0|49=REUTERSLFX-ORD|56=EdgeORD|34=162|52=20250518-22:37:12.779|10=207|
 IN 20250518-22:37:12.798127102 8=FIX.4.4|9=66|35=0|49=EdgeORD|56=REUTERSLFX-ORD|34=163|52=20250518-22:37:12.798|10=209|
OUT 20250518-22:37:42.779830560 8=FIX.4.4|9=66|35=0|49=REUTERSLFX-ORD|56=EdgeORD|34=163|52=20250518-22:37:42.779|10=211|
 IN 20250518-22:37:42.798254564 8=FIX.4.4|9=66|35=0|49=EdgeORD|56=REUTERSLFX-ORD|34=164|52=20250518-22:37:42.798|10=213|
OUT 20250518-22:38:12.779901258 8=FIX.4.4|9=66|35=0|49=REUTERSLFX-ORD|56=EdgeORD|34=164|52=20250518-22:38:12.779|10=210|
 IN 20250518-22:38:12.798382292 8=FIX.4.4|9=66|35=0|49=EdgeORD|56=REUTERSLFX-ORD|34=165|52=20250518-22:38:12.798|10=212|
OUT 20250518-22:38:42.779969907 8=FIX.4.4|9=66|35=0|49=REUTERSLFX-ORD|56=EdgeORD|34=165|52=20250518-22:38:42.779|10=214|
 IN 20250518-22:38:42.798517818 8=FIX.4.4|9=66|35=0|49=EdgeORD|56=REUTERSLFX-ORD|34=166|52=20250518-22:38:42.798|10=216|
OUT 20250518-22:39:12.780031021 8=FIX.4.4|9=66|35=0|49=REUTERSLFX-ORD|56=EdgeORD|34=166|52=20250518-22:39:12.780|10=205|
 IN 20250518-22:39:12.798646071 8=FIX.4.4|9=66|35=0|49=EdgeORD|56=REUTERSLFX-ORD|34=167|52=20250518-22:39:12.798|10=215|
OUT 20250518-22:39:42.780092222 8=FIX.4.4|9=66|35=0|49=REUTERSLFX-ORD|56=EdgeORD|34=167|52=20250518-22:39:42.780|10=209|
 IN 20250518-22:39:42.798768502 8=FIX.4.4|9=66|35=0|49=EdgeORD|56=REUTERSLFX-ORD|34=168|52=20250518-22:39:42.798|10=219|
OUT 20250518-22:40:12.780180211 8=FIX.4.4|9=66|35=0|49=REUTERSLFX-ORD|56=EdgeORD|34=168|52=20250518-22:40:12.780|10=199|
 IN 20250518-22:40:12.798852354 8=FIX.4.4|9=66|35=0|49=EdgeORD|56=REUTERSLFX-ORD|34=169|52=20250518-22:40:12.798|10=209|
OUT 20250518-22:40:42.780288775 8=FIX.4.4|9=66|35=0|49=REUTERSLFX-ORD|56=EdgeORD|34=169|52=20250518-22:40:42.780|10=203|
 IN 20250518-22:40:42.799003954 8=FIX.4.4|9=66|35=0|49=EdgeORD|56=REUTERSLFX-ORD|34=170|52=20250518-22:40:42.798|10=204|
OUT 20250518-22:41:12.780371210 8=FIX.4.4|9=66|35=0|49=REUTERSLFX-ORD|56=EdgeORD|34=170|52=20250518-22:41:12.780|10=193|
 IN 20250518-22:41:12.799148768 8=FIX.4.4|9=66|35=0|49=EdgeORD|56=REUTERSLFX-ORD|34=171|52=20250518-22:41:12.799|10=204|
OUT 20250518-22:41:42.780457109 8=FIX.4.4|9=66|35=0|49=REUTERSLFX-ORD|56=EdgeORD|34=171|52=20250518-22:41:42.780|10=197|
 IN 20250518-22:41:42.799305217 8=FIX.4.4|9=66|35=0|49=EdgeORD|56=REUTERSLFX-ORD|34=172|52=20250518-22:41:42.799|10=208|
OUT 20250518-22:42:12.780528886 8=FIX.4.4|9=66|35=0|49=REUTERSLFX-ORD|56=EdgeORD|34=172|52=20250518-22:42:12.780|10=196|
 IN 20250518-22:42:12.799381063 8=FIX.4.4|9=66|35=0|49=EdgeORD|56=REUTERSLFX-ORD|34=173|52=20250518-22:42:12.799|10=207|
OUT 20250518-22:42:42.780581968 8=FIX.4.4|9=66|35=0|49=REUTERSLFX-ORD|56=EdgeORD|34=173|52=20250518-22:42:42.780|10=200|
 IN 20250518-22:42:42.799478071 8=FIX.4.4|9=66|35=0|49=EdgeORD|56=REUTERSLFX-ORD|34=174|52=20250518-22:42:42.799|10=211|
OUT 20250518-22:43:12.780640419 8=FIX.4.4|9=66|35=0|49=REUTERSLFX-ORD|56=EdgeORD|34=174|52=20250518-22:43:12.780|10=199|
 IN 20250518-22:43:12.799605269 8=FIX.4.4|9=66|35=0|49=EdgeORD|56=REUTERSLFX-ORD|34=175|52=20250518-22:43:12.799|10=210|
OUT 20250518-22:43:42.780706014 8=FIX.4.4|9=66|35=0|49=REUTERSLFX-ORD|56=EdgeORD|34=175|52=20250518-22:43:42.780|10=203|
 IN 20250518-22:43:42.799713836 8=FIX.4.4|9=66|35=0|49=EdgeORD|56=REUTERSLFX-ORD|34=176|52=20250518-22:43:42.799|10=214|
OUT 20250518-22:44:12.780804500 8=FIX.4.4|9=66|35=0|49=REUTERSLFX-ORD|56=EdgeORD|34=176|52=20250518-22:44:12.780|10=202|
 IN 20250518-22:44:12.799831677 8=FIX.4.4|9=66|35=0|49=EdgeORD|56=REUTERSLFX-ORD|34=177|52=20250518-22:44:12.799|10=213|
OUT 20250518-22:44:42.780903909 8=FIX.4.4|9=66|35=0|49=REUTERSLFX-ORD|56=EdgeORD|34=177|52=20250518-22:44:42.780|10=206|
 IN 20250518-22:44:42.799963265 8=FIX.4.4|9=66|35=0|49=EdgeORD|56=REUTERSLFX-ORD|34=178|52=20250518-22:44:42.799|10=217|
OUT 20250518-22:45:12.780967350 8=FIX.4.4|9=66|35=0|49=REUTERSLFX-ORD|56=EdgeORD|34=178|52=20250518-22:45:12.780|10=205|
 IN 20250518-22:45:12.800113426 8=FIX.4.4|9=66|35=0|49=EdgeORD|56=REUTERSLFX-ORD|34=179|52=20250518-22:45:12.799|10=216|
OUT 20250518-22:45:42.781022494 8=FIX.4.4|9=66|35=0|49=REUTERSLFX-ORD|56=EdgeORD|34=179|52=20250518-22:45:42.781|10=210|
 IN 20250518-22:45:42.800229714 8=FIX.4.4|9=66|35=0|49=EdgeORD|56=REUTERSLFX-ORD|34=180|52=20250518-22:45:42.800|10=194|
OUT 20250518-22:46:12.781112315 8=FIX.4.4|9=66|35=0|49=REUTERSLFX-ORD|56=EdgeORD|34=180|52=20250518-22:46:12.781|10=200|
 IN 20250518-22:46:12.800377618 8=FIX.4.4|9=66|35=0|49=EdgeORD|56=REUTERSLFX-ORD|34=181|52=20250518-22:46:12.800|10=193|
OUT 20250518-22:46:42.781176759 8=FIX.4.4|9=66|35=0|49=REUTERSLFX-ORD|56=EdgeORD|34=181|52=20250518-22:46:42.781|10=204|
 IN 20250518-22:46:42.800486555 8=FIX.4.4|9=66|35=0|49=EdgeORD|56=REUTERSLFX-ORD|34=182|52=20250518-22:46:42.800|10=197|
OUT 20250518-22:47:12.781266533 8=FIX.4.4|9=66|35=0|49=REUTERSLFX-ORD|56=EdgeORD|34=182|52=20250518-22:47:12.781|10=203|
 IN 20250518-22:47:12.800583656 8=FIX.4.4|9=66|35=0|49=EdgeORD|56=REUTERSLFX-ORD|34=183|52=20250518-22:47:12.800|10=196|
OUT 20250518-22:47:42.781365353 8=FIX.4.4|9=66|35=0|49=REUTERSLFX-ORD|56=EdgeORD|34=183|52=20250518-22:47:42.781|10=207|
 IN 20250518-22:47:42.800720648 8=FIX.4.4|9=66|35=0|49=EdgeORD|56=REUTERSLFX-ORD|34=184|52=20250518-22:47:42.800|10=200|
OUT 20250518-22:48:12.781445564 8=FIX.4.4|9=66|35=0|49=REUTERSLFX-ORD|56=EdgeORD|34=184|52=20250518-22:48:12.781|10=206|
 IN 20250518-22:48:12.800840064 8=FIX.4.4|9=66|35=0|49=EdgeORD|56=REUTERSLFX-ORD|34=185|52=20250518-22:48:12.800|10=199|
OUT 20250518-22:48:42.781523785 8=FIX.4.4|9=66|35=0|49=REUTERSLFX-ORD|56=EdgeORD|34=185|52=20250518-22:48:42.781|10=210|
 IN 20250518-22:48:42.800942666 8=FIX.4.4|9=66|35=0|49=EdgeORD|56=REUTERSLFX-ORD|34=186|52=20250518-22:48:42.800|10=203|
OUT 20250518-22:49:12.781620720 8=FIX.4.4|9=66|35=0|49=REUTERSLFX-ORD|56=EdgeORD|34=186|52=20250518-22:49:12.781|10=209|
 IN 20250518-22:49:12.801067265 8=FIX.4.4|9=66|35=0|49=EdgeORD|56=REUTERSLFX-ORD|34=187|52=20250518-22:49:12.800|10=202|
OUT 20250518-22:49:42.781692271 8=FIX.4.4|9=66|35=0|49=REUTERSLFX-ORD|56=EdgeORD|34=187|52=20250518-22:49:42.781|10=213|
 IN 20250518-22:49:42.801187427 8=FIX.4.4|9=66|35=0|49=EdgeORD|56=REUTERSLFX-ORD|34=188|52=20250518-22:49:42.801|10=207|
OUT 20250518-22:50:12.781767047 8=FIX.4.4|9=66|35=0|49=REUTERSLFX-ORD|56=EdgeORD|34=188|52=20250518-22:50:12.781|10=203|
 IN 20250518-22:50:12.801316925 8=FIX.4.4|9=66|35=0|49=EdgeORD|56=REUTERSLFX-ORD|34=189|52=20250518-22:50:12.801|10=197|
OUT 20250518-22:50:42.781826864 8=FIX.4.4|9=66|35=0|49=REUTERSLFX-ORD|56=EdgeORD|34=189|52=20250518-22:50:42.781|10=207|
 IN 20250518-22:50:42.801414408 8=FIX.4.4|9=66|35=0|49=EdgeORD|56=REUTERSLFX-ORD|34=190|52=20250518-22:50:42.801|10=192|
OUT 20250518-22:51:12.781910351 8=FIX.4.4|9=66|35=0|49=REUTERSLFX-ORD|56=EdgeORD|34=190|52=20250518-22:51:12.781|10=197|
 IN 20250518-22:51:12.801543706 8=FIX.4.4|9=66|35=0|49=EdgeORD|56=REUTERSLFX-ORD|34=191|52=20250518-22:51:12.801|10=191|
OUT 20250518-22:51:42.781997934 8=FIX.4.4|9=66|35=0|49=REUTERSLFX-ORD|56=EdgeORD|34=191|52=20250518-22:51:42.781|10=201|
 IN 20250518-22:51:42.801680815 8=FIX.4.4|9=66|35=0|49=EdgeORD|56=REUTERSLFX-ORD|34=192|52=20250518-22:51:42.801|10=195|
OUT 20250518-22:52:12.782090042 8=FIX.4.4|9=66|35=0|49=REUTERSLFX-ORD|56=EdgeORD|34=192|52=20250518-22:52:12.782|10=201|
 IN 20250518-22:52:12.801786893 8=FIX.4.4|9=66|35=0|49=EdgeORD|56=REUTERSLFX-ORD|34=193|52=20250518-22:52:12.801|10=194|
OUT 20250518-22:52:42.782193698 8=FIX.4.4|9=66|35=0|49=REUTERSLFX-ORD|56=EdgeORD|34=193|52=20250518-22:52:42.782|10=205|
 IN 20250518-22:52:42.801913982 8=FIX.4.4|9=66|35=0|49=EdgeORD|56=REUTERSLFX-ORD|34=194|52=20250518-22:52:42.801|10=198|
OUT 20250518-22:53:12.782278133 8=FIX.4.4|9=66|35=0|49=REUTERSLFX-ORD|56=EdgeORD|34=194|52=20250518-22:53:12.782|10=204|
 IN 20250518-22:53:12.802014989 8=FIX.4.4|9=66|35=0|49=EdgeORD|56=REUTERSLFX-ORD|34=195|52=20250518-22:53:12.801|10=197|
OUT 20250518-22:53:42.782375327 8=FIX.4.4|9=66|35=0|49=REUTERSLFX-ORD|56=EdgeORD|34=195|52=20250518-22:53:42.782|10=208|
 IN 20250518-22:53:42.802131974 8=FIX.4.4|9=66|35=0|49=EdgeORD|56=REUTERSLFX-ORD|34=196|52=20250518-22:53:42.802|10=202|
OUT 20250518-22:54:12.782427615 8=FIX.4.4|9=66|35=0|49=REUTERSLFX-ORD|56=EdgeORD|34=196|52=20250518-22:54:12.782|10=207|
 IN 20250518-22:54:12.802261119 8=FIX.4.4|9=66|35=0|49=EdgeORD|56=REUTERSLFX-ORD|34=197|52=20250518-22:54:12.802|10=201|
OUT 20250518-22:54:42.782519058 8=FIX.4.4|9=66|35=0|49=REUTERSLFX-ORD|56=EdgeORD|34=197|52=20250518-22:54:42.782|10=211|
 IN 20250518-22:54:42.802352377 8=FIX.4.4|9=66|35=0|49=EdgeORD|56=REUTERSLFX-ORD|34=198|52=20250518-22:54:42.802|10=205|
OUT 20250518-22:55:12.782583774 8=FIX.4.4|9=66|35=0|49=REUTERSLFX-ORD|56=EdgeORD|34=198|52=20250518-22:55:12.782|10=210|
 IN 20250518-22:55:12.802426601 8=FIX.4.4|9=66|35=0|49=EdgeORD|56=REUTERSLFX-ORD|34=199|52=20250518-22:55:12.802|10=204|
OUT 20250518-22:55:42.782633279 8=FIX.4.4|9=66|35=0|49=REUTERSLFX-ORD|56=EdgeORD|34=199|52=20250518-22:55:42.782|10=214|
 IN 20250518-22:55:42.802544878 8=FIX.4.4|9=66|35=0|49=EdgeORD|56=REUTERSLFX-ORD|34=200|52=20250518-22:55:42.802|10=190|
OUT 20250518-22:56:12.782767278 8=FIX.4.4|9=66|35=0|49=REUTERSLFX-ORD|56=EdgeORD|34=200|52=20250518-22:56:12.782|10=195|
 IN 20250518-22:56:12.802681838 8=FIX.4.4|9=66|35=0|49=EdgeORD|56=REUTERSLFX-ORD|34=201|52=20250518-22:56:12.802|10=189|
OUT 20250518-22:56:42.782821013 8=FIX.4.4|9=66|35=0|49=REUTERSLFX-ORD|56=EdgeORD|34=201|52=20250518-22:56:42.782|10=199|
 IN 20250518-22:56:42.802767847 8=FIX.4.4|9=66|35=0|49=EdgeORD|56=REUTERSLFX-ORD|34=202|52=20250518-22:56:42.802|10=193|
OUT 20250518-22:57:12.782915319 8=FIX.4.4|9=66|35=0|49=REUTERSLFX-ORD|56=EdgeORD|34=202|52=20250518-22:57:12.782|10=198|
 IN 20250518-22:57:12.802881843 8=FIX.4.4|9=66|35=0|49=EdgeORD|56=REUTERSLFX-ORD|34=203|52=20250518-22:57:12.802|10=192|
OUT 20250518-22:57:42.782964667 8=FIX.4.4|9=66|35=0|49=REUTERSLFX-ORD|56=EdgeORD|34=203|52=20250518-22:57:42.782|10=202|
 IN 20250518-22:57:42.802984670 8=FIX.4.4|9=66|35=0|49=EdgeORD|56=REUTERSLFX-ORD|34=204|52=20250518-22:57:42.802|10=196|
OUT 20250518-22:58:12.783066818 8=FIX.4.4|9=66|35=0|49=REUTERSLFX-ORD|56=EdgeORD|34=204|52=20250518-22:58:12.783|10=202|
 IN 20250518-22:58:12.803083060 8=FIX.4.4|9=66|35=0|49=EdgeORD|56=REUTERSLFX-ORD|34=205|52=20250518-22:58:12.803|10=196|
OUT 20250518-22:58:42.783128288 8=FIX.4.4|9=66|35=0|49=REUTERSLFX-ORD|56=EdgeORD|34=205|52=20250518-22:58:42.783|10=206|
 IN 20250518-22:58:42.803204523 8=FIX.4.4|9=66|35=0|49=EdgeORD|56=REUTERSLFX-ORD|34=206|52=20250518-22:58:42.803|10=200|
OUT 20250518-22:59:12.783221026 8=FIX.4.4|9=66|35=0|49=REUTERSLFX-ORD|56=EdgeORD|34=206|52=20250518-22:59:12.783|10=205|
 IN 20250518-22:59:12.803317484 8=FIX.4.4|9=66|35=0|49=EdgeORD|56=REUTERSLFX-ORD|34=207|52=20250518-22:59:12.803|10=199|
OUT 20250518-22:59:42.783320998 8=FIX.4.4|9=66|35=0|49=REUTERSLFX-ORD|56=EdgeORD|34=207|52=20250518-22:59:42.783|10=209|
 IN 20250518-22:59:42.803431675 8=FIX.4.4|9=66|35=0|49=EdgeORD|56=REUTERSLFX-ORD|34=208|52=20250518-22:59:42.803|10=203|
OUT 20250518-23:00:12.783419796 8=FIX.4.4|9=66|35=0|49=REUTERSLFX-ORD|56=EdgeORD|34=208|52=20250518-23:00:12.783|10=194|
 IN 20250518-23:00:12.803532871 8=FIX.4.4|9=66|35=0|49=EdgeORD|56=REUTERSLFX-ORD|34=209|52=20250518-23:00:12.803|10=188|
OUT 20250518-23:00:42.783520305 8=FIX.4.4|9=66|35=0|49=REUTERSLFX-ORD|56=EdgeORD|34=209|52=20250518-23:00:42.783|10=198|
 IN 20250518-23:00:42.803690762 8=FIX.4.4|9=66|35=0|49=EdgeORD|56=REUTERSLFX-ORD|34=210|52=20250518-23:00:42.803|10=183|
OUT 20250518-23:01:12.783607567 8=FIX.4.4|9=66|35=0|49=REUTERSLFX-ORD|56=EdgeORD|34=210|52=20250518-23:01:12.783|10=188|
 IN 20250518-23:01:12.803789662 8=FIX.4.4|9=66|35=0|49=EdgeORD|56=REUTERSLFX-ORD|34=211|52=20250518-23:01:12.803|10=182|
OUT 20250518-23:01:42.783701247 8=FIX.4.4|9=66|35=0|49=REUTERSLFX-ORD|56=EdgeORD|34=211|52=20250518-23:01:42.783|10=192|
 IN 20250518-23:01:42.803899411 8=FIX.4.4|9=66|35=0|49=EdgeORD|56=REUTERSLFX-ORD|34=212|52=20250518-23:01:42.803|10=186|
OUT 20250518-23:02:12.783783972 8=FIX.4.4|9=66|35=0|49=REUTERSLFX-ORD|56=EdgeORD|34=212|52=20250518-23:02:12.783|10=191|
 IN 20250518-23:02:12.804041369 8=FIX.4.4|9=66|35=0|49=EdgeORD|56=REUTERSLFX-ORD|34=213|52=20250518-23:02:12.803|10=185|
OUT 20250518-23:02:42.783882812 8=FIX.4.4|9=66|35=0|49=REUTERSLFX-ORD|56=EdgeORD|34=213|52=20250518-23:02:42.783|10=195|
 IN 20250518-23:02:42.804166920 8=FIX.4.4|9=66|35=0|49=EdgeORD|56=REUTERSLFX-ORD|34=214|52=20250518-23:02:42.804|10=190|
OUT 20250518-23:03:12.783967296 8=FIX.4.4|9=66|35=0|49=REUTERSLFX-ORD|56=EdgeORD|34=214|52=20250518-23:03:12.783|10=194|
 IN 20250518-23:03:12.804300422 8=FIX.4.4|9=66|35=0|49=EdgeORD|56=REUTERSLFX-ORD|34=215|52=20250518-23:03:12.804|10=189|
OUT 20250518-23:03:42.784043711 8=FIX.4.4|9=66|35=0|49=REUTERSLFX-ORD|56=EdgeORD|34=215|52=20250518-23:03:42.784|10=199|
 IN 20250518-23:03:42.804406728 8=FIX.4.4|9=66|35=0|49=EdgeORD|56=REUTERSLFX-ORD|34=216|52=20250518-23:03:42.804|10=193|
OUT 20250518-23:04:12.784141880 8=FIX.4.4|9=66|35=0|49=REUTERSLFX-ORD|56=EdgeORD|34=216|52=20250518-23:04:12.784|10=198|
 IN 20250518-23:04:12.804543590 8=FIX.4.4|9=66|35=0|49=EdgeORD|56=REUTERSLFX-ORD|34=217|52=20250518-23:04:12.804|10=192|
OUT 20250518-23:04:42.784257040 8=FIX.4.4|9=66|35=0|49=REUTERSLFX-ORD|56=EdgeORD|34=217|52=20250518-23:04:42.784|10=202|
 IN 20250518-23:04:42.804644703 8=FIX.4.4|9=66|35=0|49=EdgeORD|56=REUTERSLFX-ORD|34=218|52=20250518-23:04:42.804|10=196|
OUT 20250518-23:05:12.784327643 8=FIX.4.4|9=66|35=0|49=REUTERSLFX-ORD|56=EdgeORD|34=218|52=20250518-23:05:12.784|10=201|
 IN 20250518-23:05:12.804766654 8=FIX.4.4|9=66|35=0|49=EdgeORD|56=REUTERSLFX-ORD|34=219|52=20250518-23:05:12.804|10=195|
OUT 20250518-23:05:42.784398291 8=FIX.4.4|9=66|35=0|49=REUTERSLFX-ORD|56=EdgeORD|34=219|52=20250518-23:05:42.784|10=205|
 IN 20250518-23:05:42.804885441 8=FIX.4.4|9=66|35=0|49=EdgeORD|56=REUTERSLFX-ORD|34=220|52=20250518-23:05:42.804|10=190|
OUT 20250518-23:06:12.784465243 8=FIX.4.4|9=66|35=0|49=REUTERSLFX-ORD|56=EdgeORD|34=220|52=20250518-23:06:12.784|10=195|
 IN 20250518-23:06:12.805023165 8=FIX.4.4|9=66|35=0|49=EdgeORD|56=REUTERSLFX-ORD|34=221|52=20250518-23:06:12.804|10=189|
OUT 20250518-23:06:42.784526295 8=FIX.4.4|9=66|35=0|49=REUTERSLFX-ORD|56=EdgeORD|34=221|52=20250518-23:06:42.784|10=199|
 IN 20250518-23:06:42.805152401 8=FIX.4.4|9=66|35=0|49=EdgeORD|56=REUTERSLFX-ORD|34=222|52=20250518-23:06:42.804|10=193|
OUT 20250518-23:07:12.784580696 8=FIX.4.4|9=66|35=0|49=REUTERSLFX-ORD|56=EdgeORD|34=222|52=20250518-23:07:12.784|10=198|
 IN 20250518-23:07:12.805214908 8=FIX.4.4|9=66|35=0|49=EdgeORD|56=REUTERSLFX-ORD|34=223|52=20250518-23:07:12.805|10=193|
OUT 20250518-23:07:42.784657180 8=FIX.4.4|9=66|35=0|49=REUTERSLFX-ORD|56=EdgeORD|34=223|52=20250518-23:07:42.784|10=202|
 IN 20250518-23:07:42.805362978 8=FIX.4.4|9=66|35=0|49=EdgeORD|56=REUTERSLFX-ORD|34=224|52=20250518-23:07:42.805|10=197|
OUT 20250518-23:08:12.784759741 8=FIX.4.4|9=66|35=0|49=REUTERSLFX-ORD|56=EdgeORD|34=224|52=20250518-23:08:12.784|10=201|
 IN 20250518-23:08:12.805492329 8=FIX.4.4|9=66|35=0|49=EdgeORD|56=REUTERSLFX-ORD|34=225|52=20250518-23:08:12.805|10=196|
OUT 20250518-23:08:42.784817615 8=FIX.4.4|9=66|35=0|49=REUTERSLFX-ORD|56=EdgeORD|34=225|52=20250518-23:08:42.784|10=205|
 IN 20250518-23:08:42.805633805 8=FIX.4.4|9=66|35=0|49=EdgeORD|56=REUTERSLFX-ORD|34=226|52=20250518-23:08:42.805|10=200|
OUT 20250518-23:09:12.784895977 8=FIX.4.4|9=66|35=0|49=REUTERSLFX-ORD|56=EdgeORD|34=226|52=20250518-23:09:12.784|10=204|
 IN 20250518-23:09:12.805726834 8=FIX.4.4|9=66|35=0|49=EdgeORD|56=REUTERSLFX-ORD|34=227|52=20250518-23:09:12.805|10=199|
OUT 20250518-23:09:42.784963961 8=FIX.4.4|9=66|35=0|49=REUTERSLFX-ORD|56=EdgeORD|34=227|52=20250518-23:09:42.784|10=208|
 IN 20250518-23:09:42.805867192 8=FIX.4.4|9=66|35=0|49=EdgeORD|56=REUTERSLFX-ORD|34=228|52=20250518-23:09:42.805|10=203|
OUT 20250518-23:10:12.785059721 8=FIX.4.4|9=66|35=0|49=REUTERSLFX-ORD|56=EdgeORD|34=228|52=20250518-23:10:12.785|10=199|
 IN 20250518-23:10:12.806012406 8=FIX.4.4|9=66|35=0|49=EdgeORD|56=REUTERSLFX-ORD|34=229|52=20250518-23:10:12.805|10=193|
OUT 20250518-23:10:42.785123870 8=FIX.4.4|9=66|35=0|49=REUTERSLFX-ORD|56=EdgeORD|34=229|52=20250518-23:10:42.785|10=203|
 IN 20250518-23:10:42.806152880 8=FIX.4.4|9=66|35=0|49=EdgeORD|56=REUTERSLFX-ORD|34=230|52=20250518-23:10:42.806|10=189|
OUT 20250518-23:11:12.785215393 8=FIX.4.4|9=66|35=0|49=REUTERSLFX-ORD|56=EdgeORD|34=230|52=20250518-23:11:12.785|10=193|
 IN 20250518-23:11:12.806289898 8=FIX.4.4|9=66|35=0|49=EdgeORD|56=REUTERSLFX-ORD|34=231|52=20250518-23:11:12.806|10=188|
OUT 20250518-23:11:42.785293469 8=FIX.4.4|9=66|35=0|49=REUTERSLFX-ORD|56=EdgeORD|34=231|52=20250518-23:11:42.785|10=197|
 IN 20250518-23:11:42.806380626 8=FIX.4.4|9=66|35=0|49=EdgeORD|56=REUTERSLFX-ORD|34=232|52=20250518-23:11:42.806|10=192|
OUT 20250518-23:12:12.785366640 8=FIX.4.4|9=66|35=0|49=REUTERSLFX-ORD|56=EdgeORD|34=232|52=20250518-23:12:12.785|10=196|
 IN 20250518-23:12:12.806513484 8=FIX.4.4|9=66|35=0|49=EdgeORD|56=REUTERSLFX-ORD|34=233|52=20250518-23:12:12.806|10=191|
OUT 20250518-23:12:42.785431937 8=FIX.4.4|9=66|35=0|49=REUTERSLFX-ORD|56=EdgeORD|34=233|52=20250518-23:12:42.785|10=200|
 IN 20250518-23:12:42.806645271 8=FIX.4.4|9=66|35=0|49=EdgeORD|56=REUTERSLFX-ORD|34=234|52=20250518-23:12:42.806|10=195|
OUT 20250518-23:13:12.785524918 8=FIX.4.4|9=66|35=0|49=REUTERSLFX-ORD|56=EdgeORD|34=234|52=20250518-23:13:12.785|10=199|
 IN 20250518-23:13:12.806771970 8=FIX.4.4|9=66|35=0|49=EdgeORD|56=REUTERSLFX-ORD|34=235|52=20250518-23:13:12.806|10=194|
OUT 20250518-23:13:42.785591487 8=FIX.4.4|9=66|35=0|49=REUTERSLFX-ORD|56=EdgeORD|34=235|52=20250518-23:13:42.785|10=203|
 IN 20250518-23:13:42.806897472 8=FIX.4.4|9=66|35=0|49=EdgeORD|56=REUTERSLFX-ORD|34=236|52=20250518-23:13:42.806|10=198|
OUT 20250518-23:14:12.785654175 8=FIX.4.4|9=66|35=0|49=REUTERSLFX-ORD|56=EdgeORD|34=236|52=20250518-23:14:12.785|10=202|
 IN 20250518-23:14:12.807026237 8=FIX.4.4|9=66|35=0|49=EdgeORD|56=REUTERSLFX-ORD|34=237|52=20250518-23:14:12.806|10=197|
OUT 20250518-23:14:42.785747278 8=FIX.4.4|9=66|35=0|49=REUTERSLFX-ORD|56=EdgeORD|34=237|52=20250518-23:14:42.785|10=206|
 IN 20250518-23:14:42.807161110 8=FIX.4.4|9=66|35=0|49=EdgeORD|56=REUTERSLFX-ORD|34=238|52=20250518-23:14:42.807|10=202|
OUT 20250518-23:15:12.785833503 8=FIX.4.4|9=66|35=0|49=REUTERSLFX-ORD|56=EdgeORD|34=238|52=20250518-23:15:12.785|10=205|
 IN 20250518-23:15:12.807290230 8=FIX.4.4|9=66|35=0|49=EdgeORD|56=REUTERSLFX-ORD|34=239|52=20250518-23:15:12.807|10=201|
OUT 20250518-23:15:42.785892388 8=FIX.4.4|9=66|35=0|49=REUTERSLFX-ORD|56=EdgeORD|34=239|52=20250518-23:15:42.785|10=209|
 IN 20250518-23:15:42.807384218 8=FIX.4.4|9=66|35=0|49=EdgeORD|56=REUTERSLFX-ORD|34=240|52=20250518-23:15:42.807|10=196|
OUT 20250518-23:16:12.785997975 8=FIX.4.4|9=66|35=0|49=REUTERSLFX-ORD|56=EdgeORD|34=240|52=20250518-23:16:12.785|10=199|
 IN 20250518-23:16:12.807480291 8=FIX.4.4|9=66|35=0|49=EdgeORD|56=REUTERSLFX-ORD|34=241|52=20250518-23:16:12.807|10=195|
OUT 20250518-23:16:42.786086658 8=FIX.4.4|9=66|35=0|49=REUTERSLFX-ORD|56=EdgeORD|34=241|52=20250518-23:16:42.786|10=204|
 IN 20250518-23:16:42.807601623 8=FIX.4.4|9=66|35=0|49=EdgeORD|56=REUTERSLFX-ORD|34=242|52=20250518-23:16:42.807|10=199|
OUT 20250518-23:17:12.786162693 8=FIX.4.4|9=66|35=0|49=REUTERSLFX-ORD|56=EdgeORD|34=242|52=20250518-23:17:12.786|10=203|
 IN 20250518-23:17:12.807710975 8=FIX.4.4|9=66|35=0|49=EdgeORD|56=REUTERSLFX-ORD|34=243|52=20250518-23:17:12.807|10=198|
OUT 20250518-23:17:42.786228048 8=FIX.4.4|9=66|35=0|49=REUTERSLFX-ORD|56=EdgeORD|34=243|52=20250518-23:17:42.786|10=207|
 IN 20250518-23:17:42.807830005 8=FIX.4.4|9=66|35=0|49=EdgeORD|56=REUTERSLFX-ORD|34=244|52=20250518-23:17:42.807|10=202|
OUT 20250518-23:18:12.786333343 8=FIX.4.4|9=66|35=0|49=REUTERSLFX-ORD|56=EdgeORD|34=244|52=20250518-23:18:12.786|10=206|
 IN 20250518-23:18:12.807956837 8=FIX.4.4|9=66|35=0|49=EdgeORD|56=REUTERSLFX-ORD|34=245|52=20250518-23:18:12.807|10=201|
OUT 20250518-23:18:42.786443192 8=FIX.4.4|9=66|35=0|49=REUTERSLFX-ORD|56=EdgeORD|34=245|52=20250518-23:18:42.786|10=210|
 IN 20250518-23:18:42.808053956 8=FIX.4.4|9=66|35=0|49=EdgeORD|56=REUTERSLFX-ORD|34=246|52=20250518-23:18:42.807|10=205|
OUT 20250518-23:19:12.786531121 8=FIX.4.4|9=66|35=0|49=REUTERSLFX-ORD|56=EdgeORD|34=246|52=20250518-23:19:12.786|10=209|
 IN 20250518-23:19:12.808173441 8=FIX.4.4|9=66|35=0|49=EdgeORD|56=REUTERSLFX-ORD|34=247|52=20250518-23:19:12.808|10=205|
OUT 20250518-23:19:42.786576008 8=FIX.4.4|9=66|35=0|49=REUTERSLFX-ORD|56=EdgeORD|34=247|52=20250518-23:19:42.786|10=213|
 IN 20250518-23:19:42.808305904 8=FIX.4.4|9=66|35=0|49=EdgeORD|56=REUTERSLFX-ORD|34=248|52=20250518-23:19:42.808|10=209|
OUT 20250518-23:20:12.786628081 8=FIX.4.4|9=66|35=0|49=REUTERSLFX-ORD|56=EdgeORD|34=248|52=20250518-23:20:12.786|10=203|
 IN 20250518-23:20:12.808441144 8=FIX.4.4|9=66|35=0|49=EdgeORD|56=REUTERSLFX-ORD|34=249|52=20250518-23:20:12.808|10=199|
OUT 20250518-23:20:42.786711146 8=FIX.4.4|9=66|35=0|49=REUTERSLFX-ORD|56=EdgeORD|34=249|52=20250518-23:20:42.786|10=207|
 IN 20250518-23:20:42.808562363 8=FIX.4.4|9=66|35=0|49=EdgeORD|56=REUTERSLFX-ORD|34=250|52=20250518-23:20:42.808|10=194|
OUT 20250518-23:21:12.786785704 8=FIX.4.4|9=66|35=0|49=REUTERSLFX-ORD|56=EdgeORD|34=250|52=20250518-23:21:12.786|10=197|
 IN 20250518-23:21:12.808698103 8=FIX.4.4|9=66|35=0|49=EdgeORD|56=REUTERSLFX-ORD|34=251|52=20250518-23:21:12.808|10=193|
OUT 20250518-23:21:42.786885632 8=FIX.4.4|9=66|35=0|49=REUTERSLFX-ORD|56=EdgeORD|34=251|52=20250518-23:21:42.786|10=201|
 IN 20250518-23:21:42.808813133 8=FIX.4.4|9=66|35=0|49=EdgeORD|56=REUTERSLFX-ORD|34=252|52=20250518-23:21:42.808|10=197|
OUT 20250518-23:22:12.786944331 8=FIX.4.4|9=66|35=0|49=REUTERSLFX-ORD|56=EdgeORD|34=252|52=20250518-23:22:12.786|10=200|
 IN 20250518-23:22:12.808941878 8=FIX.4.4|9=66|35=0|49=EdgeORD|56=REUTERSLFX-ORD|34=253|52=20250518-23:22:12.808|10=196|
OUT 20250518-23:22:42.787019832 8=FIX.4.4|9=66|35=0|49=REUTERSLFX-ORD|56=EdgeORD|34=253|52=20250518-23:22:42.787|10=205|
 IN 20250518-23:22:42.809055704 8=FIX.4.4|9=66|35=0|49=EdgeORD|56=REUTERSLFX-ORD|34=254|52=20250518-23:22:42.808|10=200|
OUT 20250518-23:23:12.787091947 8=FIX.4.4|9=66|35=0|49=REUTERSLFX-ORD|56=EdgeORD|34=254|52=20250518-23:23:12.787|10=204|
 IN 20250518-23:23:12.809146350 8=FIX.4.4|9=66|35=0|49=EdgeORD|56=REUTERSLFX-ORD|34=255|52=20250518-23:23:12.809|10=200|
OUT 20250518-23:23:42.787187820 8=FIX.4.4|9=66|35=0|49=REUTERSLFX-ORD|56=EdgeORD|34=255|52=20250518-23:23:42.787|10=208|
 IN 20250518-23:23:42.809271506 8=FIX.4.4|9=66|35=0|49=EdgeORD|56=REUTERSLFX-ORD|34=256|52=20250518-23:23:42.809|10=204|
OUT 20250518-23:24:12.787247142 8=FIX.4.4|9=66|35=0|49=REUTERSLFX-ORD|56=EdgeORD|34=256|52=20250518-23:24:12.787|10=207|
 IN 20250518-23:24:12.809381052 8=FIX.4.4|9=66|35=0|49=EdgeORD|56=REUTERSLFX-ORD|34=257|52=20250518-23:24:12.809|10=203|
OUT 20250518-23:24:42.787332973 8=FIX.4.4|9=66|35=0|49=REUTERSLFX-ORD|56=EdgeORD|34=257|52=20250518-23:24:42.787|10=211|
 IN 20250518-23:24:42.809480420 8=FIX.4.4|9=66|35=0|49=EdgeORD|56=REUTERSLFX-ORD|34=258|52=20250518-23:24:42.809|10=207|
OUT 20250518-23:25:12.787431411 8=FIX.4.4|9=66|35=0|49=REUTERSLFX-ORD|56=EdgeORD|34=258|52=20250518-23:25:12.787|10=210|
 IN 20250518-23:25:12.809607262 8=FIX.4.4|9=66|35=0|49=EdgeORD|56=REUTERSLFX-ORD|34=259|52=20250518-23:25:12.809|10=206|
OUT 20250518-23:25:42.787521169 8=FIX.4.4|9=66|35=0|49=REUTERSLFX-ORD|56=EdgeORD|34=259|52=20250518-23:25:42.787|10=214|
 IN 20250518-23:25:42.809764942 8=FIX.4.4|9=66|35=0|49=EdgeORD|56=REUTERSLFX-ORD|34=260|52=20250518-23:25:42.809|10=201|
OUT 20250518-23:26:12.787616902 8=FIX.4.4|9=66|35=0|49=REUTERSLFX-ORD|56=EdgeORD|34=260|52=20250518-23:26:12.787|10=204|
 IN 20250518-23:26:12.809848865 8=FIX.4.4|9=66|35=0|49=EdgeORD|56=REUTERSLFX-ORD|34=261|52=20250518-23:26:12.809|10=200|
OUT 20250518-23:26:42.787727620 8=FIX.4.4|9=66|35=0|49=REUTERSLFX-ORD|56=EdgeORD|34=261|52=20250518-23:26:42.787|10=208|
 IN 20250518-23:26:42.809948443 8=FIX.4.4|9=66|35=0|49=EdgeORD|56=REUTERSLFX-ORD|34=262|52=20250518-23:26:42.809|10=204|
OUT 20250518-23:27:12.787784891 8=FIX.4.4|9=66|35=0|49=REUTERSLFX-ORD|56=EdgeORD|34=262|52=20250518-23:27:12.787|10=207|
 IN 20250518-23:27:12.810087738 8=FIX.4.4|9=66|35=0|49=EdgeORD|56=REUTERSLFX-ORD|34=263|52=20250518-23:27:12.809|10=203|
OUT 20250518-23:27:42.787841552 8=FIX.4.4|9=66|35=0|49=REUTERSLFX-ORD|56=EdgeORD|34=263|52=20250518-23:27:42.787|10=211|
 IN 20250518-23:27:42.810179282 8=FIX.4.4|9=66|35=0|49=EdgeORD|56=REUTERSLFX-ORD|34=264|52=20250518-23:27:42.810|10=199|
OUT 20250518-23:28:12.787946739 8=FIX.4.4|9=66|35=0|49=REUTERSLFX-ORD|56=EdgeORD|34=264|52=20250518-23:28:12.787|10=210|
 IN 20250518-23:28:12.810319178 8=FIX.4.4|9=66|35=0|49=EdgeORD|56=REUTERSLFX-ORD|34=265|52=20250518-23:28:12.810|10=198|
OUT 20250518-23:28:42.788041568 8=FIX.4.4|9=66|35=0|49=REUTERSLFX-ORD|56=EdgeORD|34=265|52=20250518-23:28:42.788|10=215|
 IN 20250518-23:28:42.810433545 8=FIX.4.4|9=66|35=0|49=EdgeORD|56=REUTERSLFX-ORD|34=266|52=20250518-23:28:42.810|10=202|
OUT 20250518-23:29:12.788144388 8=FIX.4.4|9=66|35=0|49=REUTERSLFX-ORD|56=EdgeORD|34=266|52=20250518-23:29:12.788|10=214|
 IN 20250518-23:29:12.810518854 8=FIX.4.4|9=66|35=0|49=EdgeORD|56=REUTERSLFX-ORD|34=267|52=20250518-23:29:12.810|10=201|
OUT 20250518-23:29:42.788235556 8=FIX.4.4|9=66|35=0|49=REUTERSLFX-ORD|56=EdgeORD|34=267|52=20250518-23:29:42.788|10=218|
 IN 20250518-23:29:42.810655110 8=FIX.4.4|9=66|35=0|49=EdgeORD|56=REUTERSLFX-ORD|34=268|52=20250518-23:29:42.810|10=205|
OUT 20250518-23:30:12.788348435 8=FIX.4.4|9=66|35=0|49=REUTERSLFX-ORD|56=EdgeORD|34=268|52=20250518-23:30:12.788|10=208|
 IN 20250518-23:30:12.810769499 8=FIX.4.4|9=66|35=0|49=EdgeORD|56=REUTERSLFX-ORD|34=269|52=20250518-23:30:12.810|10=195|
OUT 20250518-23:30:42.788453050 8=FIX.4.4|9=66|35=0|49=REUTERSLFX-ORD|56=EdgeORD|34=269|52=20250518-23:30:42.788|10=212|
 IN 20250518-23:30:42.810883774 8=FIX.4.4|9=66|35=0|49=EdgeORD|56=REUTERSLFX-ORD|34=270|52=20250518-23:30:42.810|10=190|
OUT 20250518-23:31:12.788525656 8=FIX.4.4|9=66|35=0|49=REUTERSLFX-ORD|56=EdgeORD|34=270|52=20250518-23:31:12.788|10=202|
 IN 20250518-23:31:12.810979828 8=FIX.4.4|9=66|35=0|49=EdgeORD|56=REUTERSLFX-ORD|34=271|52=20250518-23:31:12.810|10=189|
OUT 20250518-23:31:42.788583853 8=FIX.4.4|9=66|35=0|49=REUTERSLFX-ORD|56=EdgeORD|34=271|52=20250518-23:31:42.788|10=206|
 IN 20250518-23:31:42.811086994 8=FIX.4.4|9=66|35=0|49=EdgeORD|56=REUTERSLFX-ORD|34=272|52=20250518-23:31:42.810|10=193|
OUT 20250518-23:32:12.788650802 8=FIX.4.4|9=66|35=0|49=REUTERSLFX-ORD|56=EdgeORD|34=272|52=20250518-23:32:12.788|10=205|
 IN 20250518-23:32:12.811209486 8=FIX.4.4|9=66|35=0|49=EdgeORD|56=REUTERSLFX-ORD|34=273|52=20250518-23:32:12.811|10=193|
OUT 20250518-23:32:42.788745385 8=FIX.4.4|9=66|35=0|49=REUTERSLFX-ORD|56=EdgeORD|34=273|52=20250518-23:32:42.788|10=209|
 IN 20250518-23:32:42.811331555 8=FIX.4.4|9=66|35=0|49=EdgeORD|56=REUTERSLFX-ORD|34=274|52=20250518-23:32:42.811|10=197|
OUT 20250518-23:33:12.788836633 8=FIX.4.4|9=66|35=0|49=REUTERSLFX-ORD|56=EdgeORD|34=274|52=20250518-23:33:12.788|10=208|
 IN 20250518-23:33:12.811463476 8=FIX.4.4|9=66|35=0|49=EdgeORD|56=REUTERSLFX-ORD|34=275|52=20250518-23:33:12.811|10=196|
OUT 20250518-23:33:42.788932821 8=FIX.4.4|9=66|35=0|49=REUTERSLFX-ORD|56=EdgeORD|34=275|52=20250518-23:33:42.788|10=212|
 IN 20250518-23:33:42.811558902 8=FIX.4.4|9=66|35=0|49=EdgeORD|56=REUTERSLFX-ORD|34=276|52=20250518-23:33:42.811|10=200|
OUT 20250518-23:34:12.789023453 8=FIX.4.4|9=66|35=0|49=REUTERSLFX-ORD|56=EdgeORD|34=276|52=20250518-23:34:12.789|10=212|
 IN 20250518-23:34:12.811699991 8=FIX.4.4|9=66|35=0|49=EdgeORD|56=REUTERSLFX-ORD|34=277|52=20250518-23:34:12.811|10=199|
OUT 20250518-23:34:42.789098635 8=FIX.4.4|9=66|35=0|49=REUTERSLFX-ORD|56=EdgeORD|34=277|52=20250518-23:34:42.789|10=216|
 IN 20250518-23:34:42.811785311 8=FIX.4.4|9=66|35=0|49=EdgeORD|56=REUTERSLFX-ORD|34=278|52=20250518-23:34:42.811|10=203|
OUT 20250518-23:35:12.789210501 8=FIX.4.4|9=66|35=0|49=REUTERSLFX-ORD|56=EdgeORD|34=278|52=20250518-23:35:12.789|10=215|
 IN 20250518-23:35:12.811889968 8=FIX.4.4|9=66|35=0|49=EdgeORD|56=REUTERSLFX-ORD|34=279|52=20250518-23:35:12.811|10=202|
OUT 20250518-23:35:42.789345437 8=FIX.4.4|9=66|35=0|49=REUTERSLFX-ORD|56=EdgeORD|34=279|52=20250518-23:35:42.789|10=219|
 IN 20250518-23:35:42.811975039 8=FIX.4.4|9=66|35=0|49=EdgeORD|56=REUTERSLFX-ORD|34=280|52=20250518-23:35:42.811|10=197|
OUT 20250518-23:36:12.789455608 8=FIX.4.4|9=66|35=0|49=REUTERSLFX-ORD|56=EdgeORD|34=280|52=20250518-23:36:12.789|10=209|
 IN 20250518-23:36:12.812104308 8=FIX.4.4|9=66|35=0|49=EdgeORD|56=REUTERSLFX-ORD|34=281|52=20250518-23:36:12.811|10=196|
OUT 20250518-23:36:42.789549530 8=FIX.4.4|9=66|35=0|49=REUTERSLFX-ORD|56=EdgeORD|34=281|52=20250518-23:36:42.789|10=213|
 IN 20250518-23:36:42.812240208 8=FIX.4.4|9=66|35=0|49=EdgeORD|56=REUTERSLFX-ORD|34=282|52=20250518-23:36:42.812|10=201|
OUT 20250518-23:37:12.789605842 8=FIX.4.4|9=66|35=0|49=REUTERSLFX-ORD|56=EdgeORD|34=282|52=20250518-23:37:12.789|10=212|
 IN 20250518-23:37:12.812393051 8=FIX.4.4|9=66|35=0|49=EdgeORD|56=REUTERSLFX-ORD|34=283|52=20250518-23:37:12.812|10=200|
OUT 20250518-23:37:42.789703263 8=FIX.4.4|9=66|35=0|49=REUTERSLFX-ORD|56=EdgeORD|34=283|52=20250518-23:37:42.789|10=216|
 IN 20250518-23:37:42.812494930 8=FIX.4.4|9=66|35=0|49=EdgeORD|56=REUTERSLFX-ORD|34=284|52=20250518-23:37:42.812|10=204|
OUT 20250518-23:38:12.789760990 8=FIX.4.4|9=66|35=0|49=REUTERSLFX-ORD|56=EdgeORD|34=284|52=20250518-23:38:12.789|10=215|
 IN 20250518-23:38:12.812609121 8=FIX.4.4|9=66|35=0|49=EdgeORD|56=REUTERSLFX-ORD|34=285|52=20250518-23:38:12.812|10=203|
OUT 20250518-23:38:42.789805736 8=FIX.4.4|9=66|35=0|49=REUTERSLFX-ORD|56=EdgeORD|34=285|52=20250518-23:38:42.789|10=219|
 IN 20250518-23:38:42.812735968 8=FIX.4.4|9=66|35=0|49=EdgeORD|56=REUTERSLFX-ORD|34=286|52=20250518-23:38:42.812|10=207|
OUT 20250518-23:39:12.789884464 8=FIX.4.4|9=66|35=0|49=REUTERSLFX-ORD|56=EdgeORD|34=286|52=20250518-23:39:12.789|10=218|
 IN 20250518-23:39:12.812854631 8=FIX.4.4|9=66|35=0|49=EdgeORD|56=REUTERSLFX-ORD|34=287|52=20250518-23:39:12.812|10=206|
OUT 20250518-23:39:42.789967681 8=FIX.4.4|9=66|35=0|49=REUTERSLFX-ORD|56=EdgeORD|34=287|52=20250518-23:39:42.789|10=222|
 IN 20250518-23:39:42.812945601 8=FIX.4.4|9=66|35=0|49=EdgeORD|56=REUTERSLFX-ORD|34=288|52=20250518-23:39:42.812|10=210|
OUT 20250518-23:40:12.790037513 8=FIX.4.4|9=66|35=0|49=REUTERSLFX-ORD|56=EdgeORD|34=288|52=20250518-23:40:12.790|10=204|
 IN 20250518-23:40:12.813067099 8=FIX.4.4|9=66|35=0|49=EdgeORD|56=REUTERSLFX-ORD|34=289|52=20250518-23:40:12.812|10=200|
OUT 20250518-23:40:42.790094256 8=FIX.4.4|9=66|35=0|49=REUTERSLFX-ORD|56=EdgeORD|34=289|52=20250518-23:40:42.790|10=208|
 IN 20250518-23:40:42.813160109 8=FIX.4.4|9=66|35=0|49=EdgeORD|56=REUTERSLFX-ORD|34=290|52=20250518-23:40:42.813|10=196|
OUT 20250518-23:41:12.790186615 8=FIX.4.4|9=66|35=0|49=REUTERSLFX-ORD|56=EdgeORD|34=290|52=20250518-23:41:12.790|10=198|
 IN 20250518-23:41:12.813258565 8=FIX.4.4|9=66|35=0|49=EdgeORD|56=REUTERSLFX-ORD|34=291|52=20250518-23:41:12.813|10=195|
OUT 20250518-23:41:42.790236028 8=FIX.4.4|9=66|35=0|49=REUTERSLFX-ORD|56=EdgeORD|34=291|52=20250518-23:41:42.790|10=202|
 IN 20250518-23:41:42.813382898 8=FIX.4.4|9=66|35=0|49=EdgeORD|56=REUTERSLFX-ORD|34=292|52=20250518-23:41:42.813|10=199|
OUT 20250518-23:42:12.790343201 8=FIX.4.4|9=66|35=0|49=REUTERSLFX-ORD|56=EdgeORD|34=292|52=20250518-23:42:12.790|10=201|
 IN 20250518-23:42:12.813496822 8=FIX.4.4|9=66|35=0|49=EdgeORD|56=REUTERSLFX-ORD|34=293|52=20250518-23:42:12.813|10=198|
OUT 20250518-23:42:42.790446498 8=FIX.4.4|9=66|35=0|49=REUTERSLFX-ORD|56=EdgeORD|34=293|52=20250518-23:42:42.790|10=205|
 IN 20250518-23:42:42.813622128 8=FIX.4.4|9=66|35=0|49=EdgeORD|56=REUTERSLFX-ORD|34=294|52=20250518-23:42:42.813|10=202|
OUT 20250518-23:43:12.790519220 8=FIX.4.4|9=66|35=0|49=REUTERSLFX-ORD|56=EdgeORD|34=294|52=20250518-23:43:12.790|10=204|
 IN 20250518-23:43:12.813766941 8=FIX.4.4|9=66|35=0|49=EdgeORD|56=REUTERSLFX-ORD|34=295|52=20250518-23:43:12.813|10=201|
OUT 20250518-23:43:42.790596406 8=FIX.4.4|9=66|35=0|49=REUTERSLFX-ORD|56=EdgeORD|34=295|52=20250518-23:43:42.790|10=208|
 IN 20250518-23:43:42.813881490 8=FIX.4.4|9=66|35=0|49=EdgeORD|56=REUTERSLFX-ORD|34=296|52=20250518-23:43:42.813|10=205|
OUT 20250518-23:44:12.790656183 8=FIX.4.4|9=66|35=0|49=REUTERSLFX-ORD|56=EdgeORD|34=296|52=20250518-23:44:12.790|10=207|
 IN 20250518-23:44:12.814019121 8=FIX.4.4|9=66|35=0|49=EdgeORD|56=REUTERSLFX-ORD|34=297|52=20250518-23:44:12.813|10=204|
OUT 20250518-23:44:42.790751184 8=FIX.4.4|9=66|35=0|49=REUTERSLFX-ORD|56=EdgeORD|34=297|52=20250518-23:44:42.790|10=211|
 IN 20250518-23:44:42.814125147 8=FIX.4.4|9=66|35=0|49=EdgeORD|56=REUTERSLFX-ORD|34=298|52=20250518-23:44:42.813|10=208|
OUT 20250518-23:45:12.790811315 8=FIX.4.4|9=66|35=0|49=REUTERSLFX-ORD|56=EdgeORD|34=298|52=20250518-23:45:12.790|10=210|
 IN 20250518-23:45:12.814256025 8=FIX.4.4|9=66|35=0|49=EdgeORD|56=REUTERSLFX-ORD|34=299|52=20250518-23:45:12.814|10=208|
OUT 20250518-23:45:42.790917291 8=FIX.4.4|9=66|35=0|49=REUTERSLFX-ORD|56=EdgeORD|34=299|52=20250518-23:45:42.790|10=214|
 IN 20250518-23:45:42.814395475 8=FIX.4.4|9=66|35=0|49=EdgeORD|56=REUTERSLFX-ORD|34=300|52=20250518-23:45:42.814|10=194|
OUT 20250518-23:46:12.790987742 8=FIX.4.4|9=66|35=0|49=REUTERSLFX-ORD|56=EdgeORD|34=300|52=20250518-23:46:12.790|10=195|
 IN 20250518-23:46:12.814505621 8=FIX.4.4|9=66|35=0|49=EdgeORD|56=REUTERSLFX-ORD|34=301|52=20250518-23:46:12.814|10=193|
OUT 20250518-23:46:42.791088934 8=FIX.4.4|9=66|35=0|49=REUTERSLFX-ORD|56=EdgeORD|34=301|52=20250518-23:46:42.791|10=200|
 IN 20250518-23:46:42.814602621 8=FIX.4.4|9=66|35=0|49=EdgeORD|56=REUTERSLFX-ORD|34=302|52=20250518-23:46:42.814|10=197|
OUT 20250518-23:47:12.791180323 8=FIX.4.4|9=66|35=0|49=REUTERSLFX-ORD|56=EdgeORD|34=302|52=20250518-23:47:12.791|10=199|
 IN 20250518-23:47:12.814722257 8=FIX.4.4|9=66|35=0|49=EdgeORD|56=REUTERSLFX-ORD|34=303|52=20250518-23:47:12.814|10=196|
OUT 20250518-23:47:42.791261880 8=FIX.4.4|9=66|35=0|49=REUTERSLFX-ORD|56=EdgeORD|34=303|52=20250518-23:47:42.791|10=203|
 IN 20250518-23:47:42.814863805 8=FIX.4.4|9=66|35=0|49=EdgeORD|56=REUTERSLFX-ORD|34=304|52=20250518-23:47:42.814|10=200|
OUT 20250518-23:48:12.791321309 8=FIX.4.4|9=66|35=0|49=REUTERSLFX-ORD|56=EdgeORD|34=304|52=20250518-23:48:12.791|10=202|
 IN 20250518-23:48:12.814954826 8=FIX.4.4|9=66|35=0|49=EdgeORD|56=REUTERSLFX-ORD|34=305|52=20250518-23:48:12.814|10=199|
OUT 20250518-23:48:42.791389956 8=FIX.4.4|9=66|35=0|49=REUTERSLFX-ORD|56=EdgeORD|34=305|52=20250518-23:48:42.791|10=206|
 IN 20250518-23:48:42.815067414 8=FIX.4.4|9=66|35=0|49=EdgeORD|56=REUTERSLFX-ORD|34=306|52=20250518-23:48:42.814|10=203|
OUT 20250518-23:49:12.791466634 8=FIX.4.4|9=66|35=0|49=REUTERSLFX-ORD|56=EdgeORD|34=306|52=20250518-23:49:12.791|10=205|
 IN 20250518-23:49:12.815201489 8=FIX.4.4|9=66|35=0|49=EdgeORD|56=REUTERSLFX-ORD|34=307|52=20250518-23:49:12.815|10=203|
OUT 20250518-23:49:42.791523986 8=FIX.4.4|9=66|35=0|49=REUTERSLFX-ORD|56=EdgeORD|34=307|52=20250518-23:49:42.791|10=209|
 IN 20250518-23:49:42.815307260 8=FIX.4.4|9=66|35=0|49=EdgeORD|56=REUTERSLFX-ORD|34=308|52=20250518-23:49:42.815|10=207|
OUT 20250518-23:50:12.791575374 8=FIX.4.4|9=66|35=0|49=REUTERSLFX-ORD|56=EdgeORD|34=308|52=20250518-23:50:12.791|10=199|
 IN 20250518-23:50:12.815460156 8=FIX.4.4|9=66|35=0|49=EdgeORD|56=REUTERSLFX-ORD|34=309|52=20250518-23:50:12.815|10=197|
OUT 20250518-23:50:42.791684824 8=FIX.4.4|9=66|35=0|49=REUTERSLFX-ORD|56=EdgeORD|34=309|52=20250518-23:50:42.791|10=203|
 IN 20250518-23:50:42.815578088 8=FIX.4.4|9=66|35=0|49=EdgeORD|56=REUTERSLFX-ORD|34=310|52=20250518-23:50:42.815|10=192|
OUT 20250518-23:51:12.791783709 8=FIX.4.4|9=66|35=0|49=REUTERSLFX-ORD|56=EdgeORD|34=310|52=20250518-23:51:12.791|10=193|
 IN 20250518-23:51:12.815729557 8=FIX.4.4|9=66|35=0|49=EdgeORD|56=REUTERSLFX-ORD|34=311|52=20250518-23:51:12.815|10=191|
OUT 20250518-23:51:42.791861664 8=FIX.4.4|9=66|35=0|49=REUTERSLFX-ORD|56=EdgeORD|34=311|52=20250518-23:51:42.791|10=197|
 IN 20250518-23:51:42.815847004 8=FIX.4.4|9=66|35=0|49=EdgeORD|56=REUTERSLFX-ORD|34=312|52=20250518-23:51:42.815|10=195|
OUT 20250518-23:52:12.791949515 8=FIX.4.4|9=66|35=0|49=REUTERSLFX-ORD|56=EdgeORD|34=312|52=20250518-23:52:12.791|10=196|
 IN 20250518-23:52:12.815982203 8=FIX.4.4|9=66|35=0|49=EdgeORD|56=REUTERSLFX-ORD|34=313|52=20250518-23:52:12.815|10=194|
OUT 20250518-23:52:42.792011550 8=FIX.4.4|9=66|35=0|49=REUTERSLFX-ORD|56=EdgeORD|34=313|52=20250518-23:52:42.792|10=201|
 IN 20250518-23:52:42.816099755 8=FIX.4.4|9=66|35=0|49=EdgeORD|56=REUTERSLFX-ORD|34=314|52=20250518-23:52:42.815|10=198|
OUT 20250518-23:53:12.792100624 8=FIX.4.4|9=66|35=0|49=REUTERSLFX-ORD|56=EdgeORD|34=314|52=20250518-23:53:12.792|10=200|
 IN 20250518-23:53:12.816177681 8=FIX.4.4|9=66|35=0|49=EdgeORD|56=REUTERSLFX-ORD|34=315|52=20250518-23:53:12.815|10=197|
OUT 20250518-23:53:42.792203690 8=FIX.4.4|9=66|35=0|49=REUTERSLFX-ORD|56=EdgeORD|34=315|52=20250518-23:53:42.792|10=204|
 IN 20250518-23:53:42.816317991 8=FIX.4.4|9=66|35=0|49=EdgeORD|56=REUTERSLFX-ORD|34=316|52=20250518-23:53:42.816|10=202|
OUT 20250518-23:54:12.792268794 8=FIX.4.4|9=66|35=0|49=REUTERSLFX-ORD|56=EdgeORD|34=316|52=20250518-23:54:12.792|10=203|
 IN 20250518-23:54:12.816482981 8=FIX.4.4|9=66|35=0|49=EdgeORD|56=REUTERSLFX-ORD|34=317|52=20250518-23:54:12.816|10=201|
OUT 20250518-23:54:42.792335625 8=FIX.4.4|9=66|35=0|49=REUTERSLFX-ORD|56=EdgeORD|34=317|52=20250518-23:54:42.792|10=207|
 IN 20250518-23:54:42.816600955 8=FIX.4.4|9=66|35=0|49=EdgeORD|56=REUTERSLFX-ORD|34=318|52=20250518-23:54:42.816|10=205|
OUT 20250518-23:55:12.792399649 8=FIX.4.4|9=66|35=0|49=REUTERSLFX-ORD|56=EdgeORD|34=318|52=20250518-23:55:12.792|10=206|
 IN 20250518-23:55:12.816705464 8=FIX.4.4|9=66|35=0|49=EdgeORD|56=REUTERSLFX-ORD|34=319|52=20250518-23:55:12.816|10=204|
OUT 20250518-23:55:42.792491798 8=FIX.4.4|9=66|35=0|49=REUTERSLFX-ORD|56=EdgeORD|34=319|52=20250518-23:55:42.792|10=210|
 IN 20250518-23:55:42.816802957 8=FIX.4.4|9=66|35=0|49=EdgeORD|56=REUTERSLFX-ORD|34=320|52=20250518-23:55:42.816|10=199|
OUT 20250518-23:56:12.792590585 8=FIX.4.4|9=66|35=0|49=REUTERSLFX-ORD|56=EdgeORD|34=320|52=20250518-23:56:12.792|10=200|
 IN 20250518-23:56:12.816918357 8=FIX.4.4|9=66|35=0|49=EdgeORD|56=REUTERSLFX-ORD|34=321|52=20250518-23:56:12.816|10=198|
OUT 20250518-23:56:42.792691183 8=FIX.4.4|9=66|35=0|49=REUTERSLFX-ORD|56=EdgeORD|34=321|52=20250518-23:56:42.792|10=204|
 IN 20250518-23:56:42.817064003 8=FIX.4.4|9=66|35=0|49=EdgeORD|56=REUTERSLFX-ORD|34=322|52=20250518-23:56:42.816|10=202|
OUT 20250518-23:57:12.792771200 8=FIX.4.4|9=66|35=0|49=REUTERSLFX-ORD|56=EdgeORD|34=322|52=20250518-23:57:12.792|10=203|
 IN 20250518-23:57:12.817213624 8=FIX.4.4|9=66|35=0|49=EdgeORD|56=REUTERSLFX-ORD|34=323|52=20250518-23:57:12.816|10=201|
OUT 20250518-23:57:42.792843758 8=FIX.4.4|9=66|35=0|49=REUTERSLFX-ORD|56=EdgeORD|34=323|52=20250518-23:57:42.792|10=207|
 IN 20250518-23:57:42.817309929 8=FIX.4.4|9=66|35=0|49=EdgeORD|56=REUTERSLFX-ORD|34=324|52=20250518-23:57:42.817|10=206|
OUT 20250518-23:58:12.792948197 8=FIX.4.4|9=66|35=0|49=REUTERSLFX-ORD|56=EdgeORD|34=324|52=20250518-23:58:12.792|10=206|
 IN 20250518-23:58:12.817412171 8=FIX.4.4|9=66|35=0|49=EdgeORD|56=REUTERSLFX-ORD|34=325|52=20250518-23:58:12.817|10=205|
OUT 20250518-23:58:42.793040035 8=FIX.4.4|9=66|35=0|49=REUTERSLFX-ORD|56=EdgeORD|34=325|52=20250518-23:58:42.793|10=211|
 IN 20250518-23:58:42.817538456 8=FIX.4.4|9=66|35=0|49=EdgeORD|56=REUTERSLFX-ORD|34=326|52=20250518-23:58:42.817|10=209|
OUT 20250518-23:59:12.793134619 8=FIX.4.4|9=66|35=0|49=REUTERSLFX-ORD|56=EdgeORD|34=326|52=20250518-23:59:12.793|10=210|
 IN 20250518-23:59:12.817679096 8=FIX.4.4|9=66|35=0|49=EdgeORD|56=REUTERSLFX-ORD|34=327|52=20250518-23:59:12.817|10=208|
OUT 20250518-23:59:42.793230092 8=FIX.4.4|9=66|35=0|49=REUTERSLFX-ORD|56=EdgeORD|34=327|52=20250518-23:59:42.793|10=214|
 IN 20250518-23:59:42.817792583 8=FIX.4.4|9=66|35=0|49=EdgeORD|56=REUTERSLFX-ORD|34=328|52=20250518-23:59:42.817|10=212|
OUT 20250519-00:00:12.793275971 8=FIX.4.4|9=66|35=0|49=REUTERSLFX-ORD|56=EdgeORD|34=328|52=20250519-00:00:12.793|10=194|
 IN 20250519-00:00:12.817926073 8=FIX.4.4|9=66|35=0|49=EdgeORD|56=REUTERSLFX-ORD|34=329|52=20250519-00:00:12.817|10=192|
OUT 20250519-00:00:42.793332992 8=FIX.4.4|9=66|35=0|49=REUTERSLFX-ORD|56=EdgeORD|34=329|52=20250519-00:00:42.793|10=198|
 IN 20250519-00:00:42.818069260 8=FIX.4.4|9=66|35=0|49=EdgeORD|56=REUTERSLFX-ORD|34=330|52=20250519-00:00:42.817|10=187|
OUT 20250519-00:01:12.793397772 8=FIX.4.4|9=66|35=0|49=REUTERSLFX-ORD|56=EdgeORD|34=330|52=20250519-00:01:12.793|10=188|
 IN 20250519-00:01:12.818207424 8=FIX.4.4|9=66|35=0|49=EdgeORD|56=REUTERSLFX-ORD|34=331|52=20250519-00:01:12.817|10=186|
OUT 20250519-00:01:42.793461870 8=FIX.4.4|9=66|35=0|49=REUTERSLFX-ORD|56=EdgeORD|34=331|52=20250519-00:01:42.793|10=192|
 IN 20250519-00:01:42.818333249 8=FIX.4.4|9=66|35=0|49=EdgeORD|56=REUTERSLFX-ORD|34=332|52=20250519-00:01:42.818|10=191|
OUT 20250519-00:02:12.793518919 8=FIX.4.4|9=66|35=0|49=REUTERSLFX-ORD|56=EdgeORD|34=332|52=20250519-00:02:12.793|10=191|
 IN 20250519-00:02:12.818458195 8=FIX.4.4|9=66|35=0|49=EdgeORD|56=REUTERSLFX-ORD|34=333|52=20250519-00:02:12.818|10=190|
OUT 20250519-00:02:42.793609646 8=FIX.4.4|9=66|35=0|49=REUTERSLFX-ORD|56=EdgeORD|34=333|52=20250519-00:02:42.793|10=195|
 IN 20250519-00:02:42.818619032 8=FIX.4.4|9=66|35=0|49=EdgeORD|56=REUTERSLFX-ORD|34=334|52=20250519-00:02:42.818|10=194|
OUT 20250519-00:03:12.793690569 8=FIX.4.4|9=66|35=0|49=REUTERSLFX-ORD|56=EdgeORD|34=334|52=20250519-00:03:12.793|10=194|
 IN 20250519-00:03:12.818718134 8=FIX.4.4|9=66|35=0|49=EdgeORD|56=REUTERSLFX-ORD|34=335|52=20250519-00:03:12.818|10=193|
OUT 20250519-00:03:42.793773547 8=FIX.4.4|9=66|35=0|49=REUTERSLFX-ORD|56=EdgeORD|34=335|52=20250519-00:03:42.793|10=198|
 IN 20250519-00:03:42.818817419 8=FIX.4.4|9=66|35=0|49=EdgeORD|56=REUTERSLFX-ORD|34=336|52=20250519-00:03:42.818|10=197|
OUT 20250519-00:04:12.793824649 8=FIX.4.4|9=66|35=0|49=REUTERSLFX-ORD|56=EdgeORD|34=336|52=20250519-00:04:12.793|10=197|
 IN 20250519-00:04:12.818946438 8=FIX.4.4|9=66|35=0|49=EdgeORD|56=REUTERSLFX-ORD|34=337|52=20250519-00:04:12.818|10=196|
OUT 20250519-00:04:42.793887120 8=FIX.4.4|9=66|35=0|49=REUTERSLFX-ORD|56=EdgeORD|34=337|52=20250519-00:04:42.793|10=201|
 IN 20250519-00:04:42.819069720 8=FIX.4.4|9=66|35=0|49=EdgeORD|56=REUTERSLFX-ORD|34=338|52=20250519-00:04:42.818|10=200|
OUT 20250519-00:05:12.793964123 8=FIX.4.4|9=66|35=0|49=REUTERSLFX-ORD|56=EdgeORD|34=338|52=20250519-00:05:12.793|10=200|
 IN 20250519-00:05:12.819195652 8=FIX.4.4|9=66|35=0|49=EdgeORD|56=REUTERSLFX-ORD|34=339|52=20250519-00:05:12.818|10=199|
OUT 20250519-00:05:42.794065552 8=FIX.4.4|9=66|35=0|49=REUTERSLFX-ORD|56=EdgeORD|34=339|52=20250519-00:05:42.794|10=205|
 IN 20250519-00:05:42.819360750 8=FIX.4.4|9=66|35=0|49=EdgeORD|56=REUTERSLFX-ORD|34=340|52=20250519-00:05:42.819|10=195|
OUT 20250519-00:06:12.794129251 8=FIX.4.4|9=66|35=0|49=REUTERSLFX-ORD|56=EdgeORD|34=340|52=20250519-00:06:12.794|10=195|
 IN 20250519-00:06:12.819487405 8=FIX.4.4|9=66|35=0|49=EdgeORD|56=REUTERSLFX-ORD|34=341|52=20250519-00:06:12.819|10=194|
OUT 20250519-00:06:42.794187067 8=FIX.4.4|9=66|35=0|49=REUTERSLFX-ORD|56=EdgeORD|34=341|52=20250519-00:06:42.794|10=199|
 IN 20250519-00:06:42.819596888 8=FIX.4.4|9=66|35=0|49=EdgeORD|56=REUTERSLFX-ORD|34=342|52=20250519-00:06:42.819|10=198|
OUT 20250519-00:07:12.794272090 8=FIX.4.4|9=66|35=0|49=REUTERSLFX-ORD|56=EdgeORD|34=342|52=20250519-00:07:12.794|10=198|
 IN 20250519-00:07:12.819768631 8=FIX.4.4|9=66|35=0|49=EdgeORD|56=REUTERSLFX-ORD|34=343|52=20250519-00:07:12.819|10=197|
OUT 20250519-00:07:42.794363569 8=FIX.4.4|9=66|35=0|49=REUTERSLFX-ORD|56=EdgeORD|34=343|52=20250519-00:07:42.794|10=202|
 IN 20250519-00:07:42.819889445 8=FIX.4.4|9=66|35=0|49=EdgeORD|56=REUTERSLFX-ORD|34=344|52=20250519-00:07:42.819|10=201|
OUT 20250519-00:08:12.794453152 8=FIX.4.4|9=66|35=0|49=REUTERSLFX-ORD|56=EdgeORD|34=344|52=20250519-00:08:12.794|10=201|
 IN 20250519-00:08:12.820028252 8=FIX.4.4|9=66|35=0|49=EdgeORD|56=REUTERSLFX-ORD|34=345|52=20250519-00:08:12.819|10=200|
OUT 20250519-00:08:42.794522059 8=FIX.4.4|9=66|35=0|49=REUTERSLFX-ORD|56=EdgeORD|34=345|52=20250519-00:08:42.794|10=205|
 IN 20250519-00:08:42.820158739 8=FIX.4.4|9=66|35=0|49=EdgeORD|56=REUTERSLFX-ORD|34=346|52=20250519-00:08:42.819|10=204|
OUT 20250519-00:09:12.794601741 8=FIX.4.4|9=66|35=0|49=REUTERSLFX-ORD|56=EdgeORD|34=346|52=20250519-00:09:12.794|10=204|
 IN 20250519-00:09:12.820286867 8=FIX.4.4|9=66|35=0|49=EdgeORD|56=REUTERSLFX-ORD|34=347|52=20250519-00:09:12.819|10=203|
OUT 20250519-00:09:42.794705168 8=FIX.4.4|9=66|35=0|49=REUTERSLFX-ORD|56=EdgeORD|34=347|52=20250519-00:09:42.794|10=208|
 IN 20250519-00:09:42.820351929 8=FIX.4.4|9=66|35=0|49=EdgeORD|56=REUTERSLFX-ORD|34=348|52=20250519-00:09:42.820|10=199|
OUT 20250519-00:10:12.794760997 8=FIX.4.4|9=66|35=0|49=REUTERSLFX-ORD|56=EdgeORD|34=348|52=20250519-00:10:12.794|10=198|
 IN 20250519-00:10:12.820348636 8=FIX.4.4|9=66|35=0|49=EdgeORD|56=REUTERSLFX-ORD|34=349|52=20250519-00:10:12.820|10=189|
OUT 20250519-00:10:42.794835059 8=FIX.4.4|9=66|35=0|49=REUTERSLFX-ORD|56=EdgeORD|34=349|52=20250519-00:10:42.794|10=202|
 IN 20250519-00:10:42.820402473 8=FIX.4.4|9=66|35=0|49=EdgeORD|56=REUTERSLFX-ORD|34=350|52=20250519-00:10:42.820|10=184|
OUT 20250519-00:11:12.794920034 8=FIX.4.4|9=66|35=0|49=REUTERSLFX-ORD|56=EdgeORD|34=350|52=20250519-00:11:12.794|10=192|
 IN 20250519-00:11:12.820424933 8=FIX.4.4|9=66|35=0|49=EdgeORD|56=REUTERSLFX-ORD|34=351|52=20250519-00:11:12.820|10=183|
OUT 20250519-00:11:42.794982062 8=FIX.4.4|9=66|35=0|49=REUTERSLFX-ORD|56=EdgeORD|34=351|52=20250519-00:11:42.794|10=196|
 IN 20250519-00:11:42.820458130 8=FIX.4.4|9=66|35=0|49=EdgeORD|56=REUTERSLFX-ORD|34=352|52=20250519-00:11:42.820|10=187|
OUT 20250519-00:12:12.795085780 8=FIX.4.4|9=66|35=0|49=REUTERSLFX-ORD|56=EdgeORD|34=352|52=20250519-00:12:12.795|10=196|
 IN 20250519-00:12:12.820443667 8=FIX.4.4|9=66|35=0|49=EdgeORD|56=REUTERSLFX-ORD|34=353|52=20250519-00:12:12.820|10=186|
OUT 20250519-00:12:42.795169981 8=FIX.4.4|9=66|35=0|49=REUTERSLFX-ORD|56=EdgeORD|34=353|52=20250519-00:12:42.795|10=200|
 IN 20250519-00:12:42.820482504 8=FIX.4.4|9=66|35=0|49=EdgeORD|56=REUTERSLFX-ORD|34=354|52=20250519-00:12:42.820|10=190|
OUT 20250519-00:13:12.795274377 8=FIX.4.4|9=66|35=0|49=REUTERSLFX-ORD|56=EdgeORD|34=354|52=20250519-00:13:12.795|10=199|
 IN 20250519-00:13:12.820484894 8=FIX.4.4|9=66|35=0|49=EdgeORD|56=REUTERSLFX-ORD|34=355|52=20250519-00:13:12.820|10=189|
OUT 20250519-00:13:42.795333799 8=FIX.4.4|9=66|35=0|49=REUTERSLFX-ORD|56=EdgeORD|34=355|52=20250519-00:13:42.795|10=203|
 IN 20250519-00:13:42.820527725 8=FIX.4.4|9=66|35=0|49=EdgeORD|56=REUTERSLFX-ORD|34=356|52=20250519-00:13:42.820|10=193|
OUT 20250519-00:14:12.795431240 8=FIX.4.4|9=66|35=0|49=REUTERSLFX-ORD|56=EdgeORD|34=356|52=20250519-00:14:12.795|10=202|
 IN 20250519-00:14:12.820298454 8=FIX.4.4|9=66|35=0|49=EdgeORD|56=REUTERSLFX-ORD|34=357|52=20250519-00:14:12.821|10=193|
OUT 20250519-00:14:42.795528186 8=FIX.4.4|9=66|35=0|49=REUTERSLFX-ORD|56=EdgeORD|34=357|52=20250519-00:14:42.795|10=206|
 IN 20250519-00:14:42.820093653 8=FIX.4.4|9=66|35=0|49=EdgeORD|56=REUTERSLFX-ORD|34=358|52=20250519-00:14:42.821|10=197|
OUT 20250519-00:15:12.795583023 8=FIX.4.4|9=66|35=0|49=REUTERSLFX-ORD|56=EdgeORD|34=358|52=20250519-00:15:12.795|10=205|
 IN 20250519-00:15:12.818226673 8=FIX.4.4|9=66|35=0|49=EdgeORD|56=REUTERSLFX-ORD|34=359|52=20250519-00:15:12.821|10=196|
OUT 20250519-00:15:42.795662919 8=FIX.4.4|9=66|35=0|49=REUTERSLFX-ORD|56=EdgeORD|34=359|52=20250519-00:15:42.795|10=209|
 IN 20250519-00:15:42.818298005 8=FIX.4.4|9=66|35=0|49=EdgeORD|56=REUTERSLFX-ORD|34=360|52=20250519-00:15:42.821|10=191|
OUT 20250519-00:16:12.795787792 8=FIX.4.4|9=66|35=0|49=REUTERSLFX-ORD|56=EdgeORD|34=360|52=20250519-00:16:12.795|10=199|
 IN 20250519-00:16:12.818796803 8=FIX.4.4|9=66|35=0|49=EdgeORD|56=REUTERSLFX-ORD|34=361|52=20250519-00:16:12.821|10=190|
OUT 20250519-00:16:42.795860736 8=FIX.4.4|9=66|35=0|49=REUTERSLFX-ORD|56=EdgeORD|34=361|52=20250519-00:16:42.795|10=203|
 IN 20250519-00:16:42.819359524 8=FIX.4.4|9=66|35=0|49=EdgeORD|56=REUTERSLFX-ORD|34=362|52=20250519-00:16:42.821|10=194|
OUT 20250519-00:17:12.795956167 8=FIX.4.4|9=66|35=0|49=REUTERSLFX-ORD|56=EdgeORD|34=362|52=20250519-00:17:12.795|10=202|
 IN 20250519-00:17:12.821622615 8=FIX.4.4|9=66|35=0|49=EdgeORD|56=REUTERSLFX-ORD|34=363|52=20250519-00:17:12.821|10=193|
OUT 20250519-00:17:42.796031284 8=FIX.4.4|9=66|35=0|49=REUTERSLFX-ORD|56=EdgeORD|34=363|52=20250519-00:17:42.796|10=207|
 IN 20250519-00:17:42.821853927 8=FIX.4.4|9=66|35=0|49=EdgeORD|56=REUTERSLFX-ORD|34=364|52=20250519-00:17:42.821|10=197|
OUT 20250519-00:18:12.796137829 8=FIX.4.4|9=66|35=0|49=REUTERSLFX-ORD|56=EdgeORD|34=364|52=20250519-00:18:12.796|10=206|
 IN 20250519-00:18:12.821933184 8=FIX.4.4|9=66|35=0|49=EdgeORD|56=REUTERSLFX-ORD|34=365|52=20250519-00:18:12.822|10=197|
OUT 20250519-00:18:42.796201726 8=FIX.4.4|9=66|35=0|49=REUTERSLFX-ORD|56=EdgeORD|34=365|52=20250519-00:18:42.796|10=210|
 IN 20250519-00:18:42.822028106 8=FIX.4.4|9=66|35=0|49=EdgeORD|56=REUTERSLFX-ORD|34=366|52=20250519-00:18:42.822|10=201|
OUT 20250519-00:19:12.796317291 8=FIX.4.4|9=66|35=0|49=REUTERSLFX-ORD|56=EdgeORD|34=366|52=20250519-00:19:12.796|10=209|
 IN 20250519-00:19:12.822152890 8=FIX.4.4|9=66|35=0|49=EdgeORD|56=REUTERSLFX-ORD|34=367|52=20250519-00:19:12.822|10=200|
OUT 20250519-00:19:42.796413966 8=FIX.4.4|9=66|35=0|49=REUTERSLFX-ORD|56=EdgeORD|34=367|52=20250519-00:19:42.796|10=213|
 IN 20250519-00:19:42.822277494 8=FIX.4.4|9=66|35=0|49=EdgeORD|56=REUTERSLFX-ORD|34=368|52=20250519-00:19:42.822|10=204|
OUT 20250519-00:20:12.796528405 8=FIX.4.4|9=66|35=0|49=REUTERSLFX-ORD|56=EdgeORD|34=368|52=20250519-00:20:12.796|10=203|
 IN 20250519-00:20:12.822378019 8=FIX.4.4|9=66|35=0|49=EdgeORD|56=REUTERSLFX-ORD|34=369|52=20250519-00:20:12.822|10=194|
OUT 20250519-00:20:42.796590182 8=FIX.4.4|9=66|35=0|49=REUTERSLFX-ORD|56=EdgeORD|34=369|52=20250519-00:20:42.796|10=207|
 IN 20250519-00:20:42.822478255 8=FIX.4.4|9=66|35=0|49=EdgeORD|56=REUTERSLFX-ORD|34=370|52=20250519-00:20:42.822|10=189|
OUT 20250519-00:21:12.796653856 8=FIX.4.4|9=66|35=0|49=REUTERSLFX-ORD|56=EdgeORD|34=370|52=20250519-00:21:12.796|10=197|
 IN 20250519-00:21:12.822672004 8=FIX.4.4|9=66|35=0|49=EdgeORD|56=REUTERSLFX-ORD|34=371|52=20250519-00:21:12.822|10=188|
OUT 20250519-00:21:42.796710609 8=FIX.4.4|9=66|35=0|49=REUTERSLFX-ORD|56=EdgeORD|34=371|52=20250519-00:21:42.796|10=201|
 IN 20250519-00:21:42.822951074 8=FIX.4.4|9=66|35=0|49=EdgeORD|56=REUTERSLFX-ORD|34=372|52=20250519-00:21:42.822|10=192|
OUT 20250519-00:22:12.796810947 8=FIX.4.4|9=66|35=0|49=REUTERSLFX-ORD|56=EdgeORD|34=372|52=20250519-00:22:12.796|10=200|
 IN 20250519-00:22:12.823149750 8=FIX.4.4|9=66|35=0|49=EdgeORD|56=REUTERSLFX-ORD|34=373|52=20250519-00:22:12.823|10=192|
OUT 20250519-00:22:42.796871913 8=FIX.4.4|9=66|35=0|49=REUTERSLFX-ORD|56=EdgeORD|34=373|52=20250519-00:22:42.796|10=204|
 IN 20250519-00:22:42.823268518 8=FIX.4.4|9=66|35=0|49=EdgeORD|56=REUTERSLFX-ORD|34=374|52=20250519-00:22:42.823|10=196|
OUT 20250519-00:23:12.796980082 8=FIX.4.4|9=66|35=0|49=REUTERSLFX-ORD|56=EdgeORD|34=374|52=20250519-00:23:12.796|10=203|
 IN 20250519-00:23:12.823422813 8=FIX.4.4|9=66|35=0|49=EdgeORD|56=REUTERSLFX-ORD|34=375|52=20250519-00:23:12.823|10=195|
OUT 20250519-00:23:42.797085835 8=FIX.4.4|9=66|35=0|49=REUTERSLFX-ORD|56=EdgeORD|34=375|52=20250519-00:23:42.797|10=208|
 IN 20250519-00:23:42.823556972 8=FIX.4.4|9=66|35=0|49=EdgeORD|56=REUTERSLFX-ORD|34=376|52=20250519-00:23:42.823|10=199|
OUT 20250519-00:24:12.797161230 8=FIX.4.4|9=66|35=0|49=REUTERSLFX-ORD|56=EdgeORD|34=376|52=20250519-00:24:12.797|10=207|
 IN 20250519-00:24:12.823694688 8=FIX.4.4|9=66|35=0|49=EdgeORD|56=REUTERSLFX-ORD|34=377|52=20250519-00:24:12.823|10=198|
OUT 20250519-00:24:42.797251244 8=FIX.4.4|9=66|35=0|49=REUTERSLFX-ORD|56=EdgeORD|34=377|52=20250519-00:24:42.797|10=211|
 IN 20250519-00:24:42.823830746 8=FIX.4.4|9=66|35=0|49=EdgeORD|56=REUTERSLFX-ORD|34=378|52=20250519-00:24:42.823|10=202|
OUT 20250519-00:25:12.797340095 8=FIX.4.4|9=66|35=0|49=REUTERSLFX-ORD|56=EdgeORD|34=378|52=20250519-00:25:12.797|10=210|
 IN 20250519-00:25:12.823933477 8=FIX.4.4|9=66|35=0|49=EdgeORD|56=REUTERSLFX-ORD|34=379|52=20250519-00:25:12.823|10=201|
OUT 20250519-00:25:42.797410035 8=FIX.4.4|9=66|35=0|49=REUTERSLFX-ORD|56=EdgeORD|34=379|52=20250519-00:25:42.797|10=214|
 IN 20250519-00:25:42.824062227 8=FIX.4.4|9=66|35=0|49=EdgeORD|56=REUTERSLFX-ORD|34=380|52=20250519-00:25:42.823|10=196|
OUT 20250519-00:26:12.797460385 8=FIX.4.4|9=66|35=0|49=REUTERSLFX-ORD|56=EdgeORD|34=380|52=20250519-00:26:12.797|10=204|
 IN 20250519-00:26:12.824185743 8=FIX.4.4|9=66|35=0|49=EdgeORD|56=REUTERSLFX-ORD|34=381|52=20250519-00:26:12.824|10=196|
OUT 20250519-00:26:42.797517070 8=FIX.4.4|9=66|35=0|49=REUTERSLFX-ORD|56=EdgeORD|34=381|52=20250519-00:26:42.797|10=208|
 IN 20250519-00:26:42.825901710 8=FIX.4.4|9=66|35=0|49=EdgeORD|56=REUTERSLFX-ORD|34=382|52=20250519-00:26:42.824|10=200|
OUT 20250519-00:27:12.797584019 8=FIX.4.4|9=66|35=0|49=REUTERSLFX-ORD|56=EdgeORD|34=382|52=20250519-00:27:12.797|10=207|
 IN 20250519-00:27:12.826042229 8=FIX.4.4|9=66|35=0|49=EdgeORD|56=REUTERSLFX-ORD|34=383|52=20250519-00:27:12.824|10=199|
OUT 20250519-00:27:42.797636125 8=FIX.4.4|9=66|35=0|49=REUTERSLFX-ORD|56=EdgeORD|34=383|52=20250519-00:27:42.797|10=211|
 IN 20250519-00:27:42.826165156 8=FIX.4.4|9=66|35=0|49=EdgeORD|56=REUTERSLFX-ORD|34=384|52=20250519-00:27:42.824|10=203|
OUT 20250519-00:28:12.797714890 8=FIX.4.4|9=66|35=0|49=REUTERSLFX-ORD|56=EdgeORD|34=384|52=20250519-00:28:12.797|10=210|
 IN 20250519-00:28:12.826285983 8=FIX.4.4|9=66|35=0|49=EdgeORD|56=REUTERSLFX-ORD|34=385|52=20250519-00:28:12.824|10=202|
OUT 20250519-00:28:42.797765604 8=FIX.4.4|9=66|35=0|49=REUTERSLFX-ORD|56=EdgeORD|34=385|52=20250519-00:28:42.797|10=214|
 IN 20250519-00:28:42.826388623 8=FIX.4.4|9=66|35=0|49=EdgeORD|56=REUTERSLFX-ORD|34=386|52=20250519-00:28:42.824|10=206|
OUT 20250519-00:29:12.797831607 8=FIX.4.4|9=66|35=0|49=REUTERSLFX-ORD|56=EdgeORD|34=386|52=20250519-00:29:12.797|10=213|
 IN 20250519-00:29:12.826422451 8=FIX.4.4|9=66|35=0|49=EdgeORD|56=REUTERSLFX-ORD|34=387|52=20250519-00:29:12.824|10=205|
OUT 20250519-00:29:42.797892381 8=FIX.4.4|9=66|35=0|49=REUTERSLFX-ORD|56=EdgeORD|34=387|52=20250519-00:29:42.797|10=217|
 IN 20250519-00:29:42.826549081 8=FIX.4.4|9=66|35=0|49=EdgeORD|56=REUTERSLFX-ORD|34=388|52=20250519-00:29:42.824|10=209|
OUT 20250519-00:30:12.798001992 8=FIX.4.4|9=66|35=0|49=REUTERSLFX-ORD|56=EdgeORD|34=388|52=20250519-00:30:12.798|10=208|
 IN 20250519-00:30:12.826522660 8=FIX.4.4|9=66|35=0|49=EdgeORD|56=REUTERSLFX-ORD|34=389|52=20250519-00:30:12.825|10=200|
OUT 20250519-00:30:42.798075588 8=FIX.4.4|9=66|35=0|49=REUTERSLFX-ORD|56=EdgeORD|34=389|52=20250519-00:30:42.798|10=212|
 IN 20250519-00:30:42.826478291 8=FIX.4.4|9=66|35=0|49=EdgeORD|56=REUTERSLFX-ORD|34=390|52=20250519-00:30:42.825|10=195|
OUT 20250519-00:31:12.798143158 8=FIX.4.4|9=66|35=0|49=REUTERSLFX-ORD|56=EdgeORD|34=390|52=20250519-00:31:12.798|10=202|
 IN 20250519-00:31:12.826505159 8=FIX.4.4|9=66|35=0|49=EdgeORD|56=REUTERSLFX-ORD|34=391|52=20250519-00:31:12.825|10=194|
OUT 20250519-00:31:42.798204776 8=FIX.4.4|9=66|35=0|49=REUTERSLFX-ORD|56=EdgeORD|34=391|52=20250519-00:31:42.798|10=206|
 IN 20250519-00:31:42.826644764 8=FIX.4.4|9=66|35=0|49=EdgeORD|56=REUTERSLFX-ORD|34=392|52=20250519-00:31:42.825|10=198|
OUT 20250519-00:32:12.798285228 8=FIX.4.4|9=66|35=0|49=REUTERSLFX-ORD|56=EdgeORD|34=392|52=20250519-00:32:12.798|10=205|
 IN 20250519-00:32:12.826757522 8=FIX.4.4|9=66|35=0|49=EdgeORD|56=REUTERSLFX-ORD|34=393|52=20250519-00:32:12.825|10=197|
OUT 20250519-00:32:42.798395194 8=FIX.4.4|9=66|35=0|49=REUTERSLFX-ORD|56=EdgeORD|34=393|52=20250519-00:32:42.798|10=209|
 IN 20250519-00:32:42.826850069 8=FIX.4.4|9=66|35=0|49=EdgeORD|56=REUTERSLFX-ORD|34=394|52=20250519-00:32:42.825|10=201|
OUT 20250519-00:33:12.798485691 8=FIX.4.4|9=66|35=0|49=REUTERSLFX-ORD|56=EdgeORD|34=394|52=20250519-00:33:12.798|10=208|
 IN 20250519-00:33:12.826967823 8=FIX.4.4|9=66|35=0|49=EdgeORD|56=REUTERSLFX-ORD|34=395|52=20250519-00:33:12.825|10=200|
OUT 20250519-00:33:42.798565041 8=FIX.4.4|9=66|35=0|49=REUTERSLFX-ORD|56=EdgeORD|34=395|52=20250519-00:33:42.798|10=212|
 IN 20250519-00:33:42.827049858 8=FIX.4.4|9=66|35=0|49=EdgeORD|56=REUTERSLFX-ORD|34=396|52=20250519-00:33:42.825|10=204|
OUT 20250519-00:34:12.798641010 8=FIX.4.4|9=66|35=0|49=REUTERSLFX-ORD|56=EdgeORD|34=396|52=20250519-00:34:12.798|10=211|
 IN 20250519-00:34:12.826143526 8=FIX.4.4|9=66|35=0|49=EdgeORD|56=REUTERSLFX-ORD|34=397|52=20250519-00:34:12.826|10=204|
OUT 20250519-00:34:42.798736292 8=FIX.4.4|9=66|35=0|49=REUTERSLFX-ORD|56=EdgeORD|34=397|52=20250519-00:34:42.798|10=215|
 IN 20250519-00:34:42.826265919 8=FIX.4.4|9=66|35=0|49=EdgeORD|56=REUTERSLFX-ORD|34=398|52=20250519-00:34:42.826|10=208|
OUT 20250519-00:35:12.798828751 8=FIX.4.4|9=66|35=0|49=REUTERSLFX-ORD|56=EdgeORD|34=398|52=20250519-00:35:12.798|10=214|
 IN 20250519-00:35:12.826366878 8=FIX.4.4|9=66|35=0|49=EdgeORD|56=REUTERSLFX-ORD|34=399|52=20250519-00:35:12.826|10=207|
OUT 20250519-00:35:42.798905056 8=FIX.4.4|9=66|35=0|49=REUTERSLFX-ORD|56=EdgeORD|34=399|52=20250519-00:35:42.798|10=218|
 IN 20250519-00:35:42.826520231 8=FIX.4.4|9=66|35=0|49=EdgeORD|56=REUTERSLFX-ORD|34=400|52=20250519-00:35:42.826|10=193|
OUT 20250519-00:36:12.798956581 8=FIX.4.4|9=66|35=0|49=REUTERSLFX-ORD|56=EdgeORD|34=400|52=20250519-00:36:12.798|10=199|
 IN 20250519-00:36:12.826660933 8=FIX.4.4|9=66|35=0|49=EdgeORD|56=REUTERSLFX-ORD|34=401|52=20250519-00:36:12.826|10=192|
OUT 20250519-00:36:42.799029741 8=FIX.4.4|9=66|35=0|49=REUTERSLFX-ORD|56=EdgeORD|34=401|52=20250519-00:36:42.799|10=204|
 IN 20250519-00:36:42.826781170 8=FIX.4.4|9=66|35=0|49=EdgeORD|56=REUTERSLFX-ORD|34=402|52=20250519-00:36:42.826|10=196|
OUT 20250519-00:37:12.799084388 8=FIX.4.4|9=66|35=0|49=REUTERSLFX-ORD|56=EdgeORD|34=402|52=20250519-00:37:12.799|10=203|
 IN 20250519-00:37:12.826897779 8=FIX.4.4|9=66|35=0|49=EdgeORD|56=REUTERSLFX-ORD|34=403|52=20250519-00:37:12.826|10=195|
OUT 20250519-00:37:42.799151062 8=FIX.4.4|9=66|35=0|49=REUTERSLFX-ORD|56=EdgeORD|34=403|52=20250519-00:37:42.799|10=207|
 IN 20250519-00:37:42.827013091 8=FIX.4.4|9=66|35=0|49=EdgeORD|56=REUTERSLFX-ORD|34=404|52=20250519-00:37:42.826|10=199|
OUT 20250519-00:38:12.799255526 8=FIX.4.4|9=66|35=0|49=REUTERSLFX-ORD|56=EdgeORD|34=404|52=20250519-00:38:12.799|10=206|
 IN 20250519-00:38:12.827142901 8=FIX.4.4|9=66|35=0|49=EdgeORD|56=REUTERSLFX-ORD|34=405|52=20250519-00:38:12.827|10=199|
OUT 20250519-00:38:42.799321154 8=FIX.4.4|9=66|35=0|49=REUTERSLFX-ORD|56=EdgeORD|34=405|52=20250519-00:38:42.799|10=210|
 IN 20250519-00:38:42.827259766 8=FIX.4.4|9=66|35=0|49=EdgeORD|56=REUTERSLFX-ORD|34=406|52=20250519-00:38:42.827|10=203|
OUT 20250519-00:39:12.799396187 8=FIX.4.4|9=66|35=0|49=REUTERSLFX-ORD|56=EdgeORD|34=406|52=20250519-00:39:12.799|10=209|
 IN 20250519-00:39:12.827355155 8=FIX.4.4|9=66|35=0|49=EdgeORD|56=REUTERSLFX-ORD|34=407|52=20250519-00:39:12.827|10=202|
OUT 20250519-00:39:42.799464703 8=FIX.4.4|9=66|35=0|49=REUTERSLFX-ORD|56=EdgeORD|34=407|52=20250519-00:39:42.799|10=213|
 IN 20250519-00:39:42.827495836 8=FIX.4.4|9=66|35=0|49=EdgeORD|56=REUTERSLFX-ORD|34=408|52=20250519-00:39:42.827|10=206|
OUT 20250519-00:40:12.799518834 8=FIX.4.4|9=66|35=0|49=REUTERSLFX-ORD|56=EdgeORD|34=408|52=20250519-00:40:12.799|10=203|
 IN 20250519-00:40:12.827602878 8=FIX.4.4|9=66|35=0|49=EdgeORD|56=REUTERSLFX-ORD|34=409|52=20250519-00:40:12.827|10=196|
OUT 20250519-00:40:42.799596682 8=FIX.4.4|9=66|35=0|49=REUTERSLFX-ORD|56=EdgeORD|34=409|52=20250519-00:40:42.799|10=207|
 IN 20250519-00:40:42.827710093 8=FIX.4.4|9=66|35=0|49=EdgeORD|56=REUTERSLFX-ORD|34=410|52=20250519-00:40:42.827|10=191|
OUT 20250519-00:41:12.799654287 8=FIX.4.4|9=66|35=0|49=REUTERSLFX-ORD|56=EdgeORD|34=410|52=20250519-00:41:12.799|10=197|
 IN 20250519-00:41:12.827832871 8=FIX.4.4|9=66|35=0|49=EdgeORD|56=REUTERSLFX-ORD|34=411|52=20250519-00:41:12.827|10=190|
OUT 20250519-00:41:42.799700734 8=FIX.4.4|9=66|35=0|49=REUTERSLFX-ORD|56=EdgeORD|34=411|52=20250519-00:41:42.799|10=201|
 IN 20250519-00:41:42.827959318 8=FIX.4.4|9=66|35=0|49=EdgeORD|56=REUTERSLFX-ORD|34=412|52=20250519-00:41:42.827|10=194|
OUT 20250519-00:42:12.799775682 8=FIX.4.4|9=66|35=0|49=REUTERSLFX-ORD|56=EdgeORD|34=412|52=20250519-00:42:12.799|10=200|
 IN 20250519-00:42:12.828101091 8=FIX.4.4|9=66|35=0|49=EdgeORD|56=REUTERSLFX-ORD|34=413|52=20250519-00:42:12.827|10=193|
OUT 20250519-00:42:42.799833771 8=FIX.4.4|9=66|35=0|49=REUTERSLFX-ORD|56=EdgeORD|34=413|52=20250519-00:42:42.799|10=204|
 IN 20250519-00:42:42.828208255 8=FIX.4.4|9=66|35=0|49=EdgeORD|56=REUTERSLFX-ORD|34=414|52=20250519-00:42:42.828|10=198|
